:020000021000EC
:10800000B8AC012071DE0100358F03005DDE010098
:108010005DDE01005DDE01005DDE01005DDE010070
:1080200000000000000000000000000059E0010016
:108030005DDE01000000000011E001005DDE0100D6
:1080400021E2010021E2010021E2010021E2010020
:1080500021E2010021E2010021E2010021E2010010
:1080600021E2010021E2010021E2010021E2010000
:1080700021E2010021E2010021E2010021E20100F0
:1080800021E2010021E2010021E2010021E20100E0
:1080900021E2010021E2010021E2010021E20100D0
:1080A00021E2010021E2010021E2010021E20100C0
:1080B00021E2010021E2010021E2010021E20100B0
:1080C00021E2010021E2010021E2010021E20100A0
:1080D00021E2010021E2010021E2010021E2010090
:1080E00021E2010021E2010021E2010021E2010080
:1080F00021E2010021E2010021E2010021E2010070
:1081000021E2010021E2010021E2010021E201005F
:1081100021E2010021E2010021E2010021E201004F
:1081200021E2010021E2010021E2010021E201003F
:1081300021E2010021E2010021E2010021E201002F
:1081400021E201000000000000000000000000002B
:10815000000000000000000000000000000000001F
:10816000000000000000000000000000000000000F
:1081700000000000000000000000000000000000FF
:1081800000000000000000000000000000000000EF
:1081900000000000000000000000000000000000DF
:1081A00000000000000000000000000000000000CF
:1081B00000000000000000000000000000000000BF
:1081C00000000000000000000000000000000000AF
:1081D000000000000000000000000000000000009F
:1081E000000000000000000000000000000000008F
:1081F000000000000000000000000000000000007F
:10820000DEE61E284CBBCE8F025B00003C00000067
:10821000281A030001000000008001000080010016
:10822000FFFF0291000000000000000000000000BD
:0C82300000000000000000000000000042
:1082400081F0004102E000BF83F0004330B54FEA07
:1082500041044FEA430594EA050F08BF90EA020F74
:108260001FBF54EA000C55EA020C7FEA645C7FEA07
:10827000655C00F0E2804FEA5454D4EB5555B8BF2A
:108280006D420CDD2C4480EA020281EA030382EA9B
:10829000000083EA010180EA020281EA0303362D2D
:1082A00088BF30BD11F0004F4FEA01314FF4801C00
:1082B0004CEA113102D0404261EB410113F0004F12
:1082C0004FEA03334CEA133302D0524263EB4303C9
:1082D00094EA050F00F0A780A4F10104D5F1200E67
:1082E0000DDB02FA0EFC22FA05F2801841F10001C2
:1082F00003FA0EF2801843FA05F359410EE0A5F196
:1083000020050EF1200E012A03FA0EFC28BF4CF0C6
:10831000020C43FA05F3C01851EBE37101F000457C
:1083200007D54FF0000EDCF1000C7EEB00006EEB89
:108330000101B1F5801F1BD3B1F5001F0CD3490813
:108340005FEA30004FEA3C0C04F101044FEA44526A
:1083500012F5800F80F09A80BCF1004F08BF5FEAF1
:10836000500C50F1000041EB045141EA050130BDD1
:108370005FEA4C0C404141EB0101013C28BFB1F5E3
:10838000801FE9D291F0000F04BF01460020B1FA2E
:1083900081F308BF2033A3F10B03B3F120020CDA01
:1083A0000C3208DD02F1140CC2F10C0201FA0CF0DF
:1083B00021FA02F10CE002F11402D8BFC2F1200C44
:1083C00001FA02F120FA0CFCDCBF41EA0C019040FA
:1083D000E41AA2BF01EB0451294330BD6FEA040443
:1083E0001F3C1CDA0C340EDC04F11404C4F120022E
:1083F00020FA04F001FA02F340EA030021FA04F340
:1084000045EA030130BDC4F10C04C4F1200220FA96
:1084100002F001FA04F340EA0300294630BD21FAD4
:1084200004F0294630BD94F0000F83F4801306BF9A
:1084300081F480110134013D4EE77FEA645C18BF8E
:108440007FEA655C29D094EA050F08BF90EA020F25
:1084500005D054EA000C04BF1946104630BD91EA1D
:10846000030F1EBF0021002030BD5FEA545C05D120
:108470004000494128BF41F0004130BD14F580045F
:108480003CBF01F5801130BD01F0004545F0FE41D3
:1084900041F470014FF0000030BD7FEA645C1ABF08
:1084A000194610467FEA655C1CBF0B46024650EA3F
:1084B000013406BF52EA033591EA030F41F400216B
:1084C00030BD00BF90F0000F04BF0021704730B5F1
:1084D0004FF4806404F132044FF000054FF00001C6
:1084E00050E700BF90F0000F04BF0021704730B587
:1084F0004FF4806404F1320410F0004548BF40425C
:108500004FF000013EE700BF42004FEAE2014FEAB0
:1085100031014FEA02701FBF12F07F4393F07F4F8B
:1085200081F06051704732F07F4208BF704793F08E
:108530007F4F04BF41F40021704730B54FF46074A1
:1085400001F0004521F000411CE700BF50EA0102A4
:1085500008BF704730B54FF000050AE050EA01024D
:1085600008BF704730B511F0004502D5404261EBBD
:1085700041014FF4806404F132045FEA915C3FF4FE
:10858000D8AE4FF003025FEADC0C18BF03325FEA9B
:10859000DC0C18BF033202EBDC02C2F1200300FA4C
:1085A00003FC20FA02F001FA03FE40EA0E0021FA71
:1085B00002F11444BDE600BF4FF0FF3C06E000BFEF
:1085C0004FF0010C02E000BF4FF0010C4DF804CD5C
:1085D0004FEA410C7FEA6C5C4FEA430C18BF7FEA1C
:1085E0006C5C1BD001B050EA410C0CBF52EA430C4A
:1085F00091EA030F02BF90EA020F0020704710F1CA
:10860000000F91EA030F58BF994208BF90422CBF58
:10861000D8176FEAE37040F0010070474FEA410C51
:108620007FEA6C5C02D150EA013C07D14FEA430C6F
:108630007FEA6C5CD6D152EA033CD3D05DF8040BE0
:10864000704700BF8446104662468C461946634612
:1086500000E000BF01B5FFF7B7FF002848BF10F1E9
:10866000000F01BD4DF808EDFFF7F4FF0CBF01202E
:1086700000205DF808FB00BF4DF808EDFFF7EAFFAA
:1086800034BF012000205DF808FB00BF4DF808ED65
:10869000FFF7E0FF94BF012000205DF808FB00BF5A
:1086A0004DF808EDFFF7CEFF94BF012000205DF8E4
:1086B00008FB00BF4DF808EDFFF7C4FF34BF0120F1
:1086C00000205DF808FB00BF4FEA410212F50012DE
:1086D00015D211D56FF47873B3EB625212D94FEA09
:1086E000C12343F0004343EA505311F0004F23FAF3
:1086F00002F018BF404270474FF00000704750EA48
:10870000013005D111F0004008BF6FF00040704704
:108710004FF00000704700BF4FEA4102B2F1E04362
:1087200024BFB3F5001CDCF1FE5C0DD901F0004C58
:108730004FEAC0024CEA5070B2F1004F40EB8300A8
:1087400008BF20F00100704711F0804F21D113F1D4
:108750003872BCBF01F00040704741F480114FEA0D
:108760005252C2F11802C2F1200C10FA0CF320FA96
:1087700002F018BF40F001004FEAC1234FEAD323B3
:1087800003FA0CFC40EA0C0023FA02F34FEA43031D
:10879000CCE77FEA625307D150EA01331EBF4FF0A6
:1087A000FE4040F44000704701F0004040F0FE40C1
:1087B00040F40000704700BF53B94AB9002908BF10
:1087C00000281CBF4FF0FF314FF0FF3000F00CB815
:1087D000ADF1080C6DE904CE00F022F8DDF804E0FC
:1087E000DDE9022304B07047704700BF10F8012B89
:1087F00011F8013B012A28BF9A42F7D0D01A7047DE
:10880000034611F8012B03F8012B002AF9D1704718
:10881000034613F8012B002AFBD1181A01387047C0
:108820002DE9F04786468C460846089E1546744654
:108830001946002B40F0C1808542B2FA82F245D938
:108840004AB1C2F1200300FA02FC954094402EFA8E
:1088500003F343EA0C0C4FEA154EA8B2230CBCFB01
:10886000FEF80EFB18CC08FB00F943EA0C439945CF
:1088700028D9EB1808F1FF3704D2994502D9A8F19D
:1088800002072B44A3EB0903A4B2B3FBFEFC0EFBCF
:108890001C330CFB00F044EA0344A04214D92C1909
:1088A0000CF1FF3304D2A04202D9ACF102032C44F4
:1088B000241A43EA07401EB1D44000233460736099
:1088C000BDE8F0874746DDE76346F1E792BB431B0F
:1088D00001214FEA154EAFB2200CB3FBFEFC0EFB9C
:1088E0001C330CFB07F840EA0343984561D9EB18A9
:1088F0000CF1FF3004D2984502D9ACF102002B44B0
:10890000A3EB0803A4B2B3FBFEFC0EFB1C330CFB71
:1089100007F744EA0344A7424DD92C190CF1FF3361
:1089200004D2A74202D9ACF102032C44E41B43EA6F
:108930000040C0E7C2F120039540944020FA03F1C3
:108940002EFA03F34FEA154E9040AFB20343B1FB4A
:10895000FEFC0EFB1C10190C0CFB07F841EA004151
:10896000884522D969180CF1FF3004D2884502D914
:10897000ACF102002944A1EB08019BB2B1FBFEFC63
:108980000EFB1C110CFB07F743EA01439F420ED973
:10899000EB180CF1FF3104D29F4202D9ACF1020175
:1089A0002B44DB1B41EA004193E76046E3E7614665
:1089B000F7E76046A4E76346B8E7834206D916B9ED
:1089C000002108467CE7C6E900E0F9E7B3FA83F73F
:1089D0008FB9834201D3724508D8BEEB020460EB25
:1089E000030301209C461EB9002169E73846FAE7D7
:1089F000C6E9004CF8E7C7F1200CBB400EFA07F5BA
:108A000022FA0CF42EFA0CF1BA401C4320FA0CF3B3
:108A1000B8404FEA144901431FFA84FEB3FBF9F84A
:108A200009FB18300B0C08FB0EFA43EA00439A4589
:108A300040D9E31808F1FF3004D29A4502D9A8F1D1
:108A400002002344A3EB0A0389B2B3FBF9F809FB44
:108A5000183308FB0EFE41EA03418E452CD96118FC
:108A600008F1FF3304D28E4502D9A8F10203214454
:108A700043EA0040A1EB0E01A0FB02984145CE461F
:108A8000434602D306D14D4504D20138B9EB020E5C
:108A900068EB0403002EA7D0B5EB0E0261EB0301D7
:108AA00001FA0CFC22FA07F3F9404CEA0303C6E989
:108AB000003199E74046C5E74346D9E7000000008A
:108AC0002DE9F04706460C4692B0002900F0BD8023
:108AD0000F68002F00F0B9808D68D1F8048005F18F
:108AE0000409C1450AD80422AB49781926F05EFF73
:108AF000A8B90423F360A36804331DE06B1D9845F7
:108B000010D2454580F0A1807B5D7819222B24D1BD
:108B10002146304612B0BDE8F04714F07BBD6B1D16
:108B200098450ED305229D49781926F03FFF30B9AC
:108B30000123F360A36805330120A36086E0C145EB
:108B4000DFD804229649781926F030FF0028D8D1C2
:108B50000223F36001237361CDE72D2B03D0A3F132
:108B60003002092A53D800230DF1080C67464FF054
:108B7000010EA8EB0505DFF82C82019310F8012BFC
:108B8000452A3CD82A2A10D9A2F12B01C9B20EFAE3
:108B900001F111EA080F01D12E2A06D101333F2B32
:108BA0000CF8012B01D0AB42E8D1002548336B44CF
:108BB000384601A903F8405C1DF042F9DDF804A035
:108BC0008046BA45894640D071A3D3E90023FFF718
:108BD00067FDB0B9002240464946734BFFF756FD8A
:108BE00090B940464946FFF76FFD0823C6E906895C
:108BF0007061F360A368AAEB070A53449CE7652AF7
:108C0000CBE76FF00040F0E74FF00040EDE75B2B63
:108C100058D1D4F80C90B9F57A7F16D209F1010336
:108C2000E3607B5D5B2B10D101352046A56024F00D
:108C300005FFA368984506D9FA5C5D2A09D100278B
:108C4000C4F80C9036E0013BA360002012B0BDE8F0
:108C5000F08700252F46013BA360206924F03BFFED
:108C6000A8460546002800F0A3804FB3C8F80000CE
:108C7000C0F80480A36820460133A36024F0DEFE20
:108C800021462846FFF71CFF002800F0918020466F
:108C900024F0D4FED4E90123934280F08C80226832
:108CA000D35C2C2BD9D05D2B40F08580E368013B51
:108CB000E3607D602023C6E90273A36801333BE7CC
:108CC0000746D7E77B2BC0D1D4F80C90B9F57A7F53
:108CD000BBD209F10103E3607B5D7B2BB5D101358C
:108CE0002046A56024F0AAFEA3689845ABD9FA5C9B
:108CF0007D2A03D10027C4F80C9047E000252F46B9
:108D0000A846013BA360206924F0E5FEA94605467C
:108D100000284DD0002F49D0C9F80000C0F80490B9
:108D2000A36820460133A36024F088FE214628462C
:108D300014F070FC00283BD0204624F07FFE2B6905
:108D4000C5F810802B62D4E90123934230D2226807
:108D5000D25C3A2A2CD101332046A36024F06EFE67
:108D600021462846FFF7ACFE10B3204624F066FEED
:108D7000D4E9012393421ED22268D35C2C2BC2D0AB
:108D80007D2B18D1E368013BE3607D60402392E7CF
:108D90000000C0FFFFFFDF41177D04002E7D0400AF
:108DA000347D0400E57F00040000E0C10746B7E71A
:108DB000002F3FF44AAF384614F046FD45E700BFA8
:108DC00070B50F4B186823F039FC002816DD4FF4FE
:108DD0007A734FF4004503FB00F4002140F2E730C2
:108DE0004FF47A720023E4FB0501FFF7E5FCBDE8D0
:108DF000704002460B4603481AF0BCBC70BD00BF71
:108E000008F4002080C5002010B508481AF0B8FC0E
:108E1000142024F0E3FB044628B103460121044A50
:108E200004481FF062FA204610BD00BF80C5002034
:108E3000321404004006040010B50020FFF7E4FFE0
:108E4000084C034640B101210748084A1FF04DFA7B
:108E5000216807481FF045FA21680648BDE8104020
:108E60001FF03FBA08F4002040060400521404002A
:108E7000020007D2010007D210B51E4B1A78A2B12A
:108E80005A7892B1A8B918701B4C5970206809F033
:108E900005FA25F0CAF870B10021206823F03AFBEA
:108EA000C0B1BDE81040FFF78BBF28B918705970EA
:108EB00001E00029E8D010BD01221A700029F6D087
:108EC0005A700D4B186809F013FABDE810400B48B2
:108ED0001AF056BCFFF798FF03460028EBD001219B
:108EE0000748084A1FF001FA21680748BDE810400A
:108EF0001FF0F7B9720D012008F4002080C5002092
:108F00004006040052140400020007D210B5064CBB
:108F1000064821681FF0E5F9206809F0BFF9BDE8AF
:108F200010400020FFF770BF08F40020020007D2B5
:108F300003460121014A02481FF0D7B97314040007
:108F40004006040008B524F04BFB034620B1022183
:108F5000034A04481FF0C9F9FFF732FF002008BD9B
:108F60008C1404004006040010B5152024F036FBD4
:108F7000044618B9BDE81040FFF7E4BF03460121DD
:108F8000024A03481FF0B1F9204610BD3214040014
:108F90004006040010B504464FF0FF324FF0FF3397
:108FA000074819F043FC074B5A78A24203D02146E8
:108FB0001878FFF761FFBDE81040014819F006BDC1
:108FC000CCCA0020720D012010B50446006809F0DB
:108FD00065F9012120461FF08AF9022120461FF081
:108FE00086F9002120461FF082F900230B482361F7
:108FF00011F002F9034650B101210948094A1FF056
:1090000074F921680848BDE810401FF06AB90748A4
:1090100010F0D6FB2268064B1A6010BDD1900100FB
:1090200040060400B2140400020007D2A59101001A
:1090300008F4002010B504464FF0FF324FF0FF3324
:10904000074819F0F3FB074B1A78A24203D02046D9
:109050005978FFF711FFBDE81040014819F0B6BC80
:10906000CCCA0020720D012008B5094B186800F029
:1090700097F9034640B10121064A07481FF035F928
:10908000BDE80840FFF742BFBDE80840FFF7D2BF88
:1090900008F40020D41404004006040008B5094B6D
:1090A000186800F0FDF8034640B10121064A074860
:1090B0001FF01BF9BDE80840FFF728BFBDE80840D6
:1090C000FFF7D2BF08F40020F014040040060400AB
:1090D000084608B5082937D8DFE801F03A05222606
:1090E0002E2236363A001B4B186800F07FF810F13C
:1090F0003D0F034609D10221174A18481FF086FD8B
:10910000BDE808400120FFF795BF0028F8D0144AB9
:10911000012112481FF0E9F8BDE80840FFF7F6BE4C
:10912000BDE80840FFF7BABF0A4B186800F0CEF858
:10913000034668B10B4AEBE7064B186800F030F9BC
:10914000034628B1084AE3E7BDE80840FFF7F0BE50
:1091500008BD00BF08F400200C1504004006040000
:10916000311504004A150400D4140400052808B57C
:109170000ED005D801280BD002280ED0002008E020
:109180005A28FBD10221054A05481FF03FFDF5E7AB
:109190000120BDE80840FFF7FDBE08BD63150400CF
:1091A0004006040003780B2B06D1017A022907D16F
:1091B000044A05481FF02ABD13B9007AFFF7D6BF4D
:1091C000704700BF971504004006040010B5054C19
:1091D000054821681FF085F82068BDE8104009F0B7
:1091E0005DB800BF08F40020020007D270B500246B
:1091F0000646A2B01822214608A8CDE90044CDE9D0
:10920000024426F08DFB002E3DD0242221460FA8DB
:109210000E9426F085FB2422214619A8189426F0E6
:109220007FFB1C491C4818AB0EAA17F089FBA04213
:1092300003DC6FF00D0022B070BD012004AA0EA95E
:109240001FF060FF0128054602D06FF03C00F2E7F6
:109250000EA96846FFF7D4FA6846FFF7D9FA08AABC
:109260000146684620F0ABFF0028E2D023460322E7
:10927000304609A908F0ECFA40B1084B099A20469B
:109280001A601D71D7E76FF01500D4E76FF0120078
:10929000D1E700BF0E1604003B1604000CF40020BA
:1092A00010B550B1084C23792BB1214608F06EFE61
:1092B00030B100232371002010BD6FF01500FBE7D3
:1092C0006FF00D00F8E700BF0CF4002070B500242B
:1092D0000546A8B0242221460BA80A9426F020FBBC
:1092E0001822214604A826F01BFB002D4CD0214655
:1092F000242215A8149426F013FB214624221FA82B
:109300001E9426F00DFB234923481EAB14AA17F028
:1093100017FB041E35DD02206A4614A91FF0F2FE79
:1093200001281FD114A90AA8FFF76AFA0AA8FFF7B3
:109330006FFA04AA01460AA820F041FF08B305AC61
:10934000002303222146284607F092FEF8B194E854
:109350000F00124E06F1080585E80F0001230020DA
:1093600033760CE0012C08D002206A461EA91FF0BB
:10937000C9FE012801D11EA9D5E76FF03C0028B035
:1093800070BD6FF00D00FAE76FF01500F7E76FF0B2
:109390001200F4E70E1604003B1604000CF4002043
:1093A00010B558B1084C237E33B104F1080108F020
:1093B0006DFB30B100232376002010BD6FF0150047
:1093C000FBE76FF00D00F8E70CF4002038B524F04F
:1093D0009EFB054640B90121174A18481EF0AEFF12
:1093E0004FF0FF34204638BD154924F094FB154951
:1093F000002808BF284624F08EFB0446C0B124F0A4
:1094000097FB50B1206926F093FA0446284614F0E1
:109410001BFA0D4819F0AEFCE4E7204624F081FB6E
:1094200008B16469F2E70221084A04481EF086FF89
:109430004FF0FF34EAE700BF571604007005040040
:1094400079160400811604002CCC00209316040029
:1094500030B5194C87B020460194FFF7D9F9C823DD
:109460000393164B029004930F23154904F108004F
:1094700094F828500593FFF7B9F928B10321114A50
:1094800011481EF05BFF0CE0B5F1300118BF01215F
:109490000FF06EFD034630B101210C4A0A481EF060
:1094A0004BFF07B030BD01A804F046F90028F8D002
:1094B0000121074AE4E700BF58F40020461E0400DB
:1094C000522C0400BE16040070050400D4160400DB
:1094D000F116040008B503210448054A1EF02EFFCA
:1094E000BDE808400349044826F06BB87005040045
:1094F0001717040028F4002088CD0020044801211B
:1095000008B5044A1EF01AFF012001F0F5FD00BF66
:10951000700504002617040008B5034B994201D1D9
:10952000FFF7ECFF08BD00BF020007D200280CDDEA
:10953000064BD3E8EF2FC3E8E10F0029F9D1002251
:109540000023034903481AF0A1B87047D8C500208A
:1095500060CE002088CD002030B5A5B02C2200219F
:10956000684626F0DDF9062312480BAD8DF8003071
:109570000595FFF72BFF041E0FDB234664212846C9
:109580000D4A1CF031FC0690684603F047FE30B1EE
:1095900001210A4A0A481EF0D1FE25B030BD2046FE
:1095A000FFF7C4FF23460321064A05481EF0C4FE08
:1095B000F3E700BFEC0D0120621704007B170400E5
:1095C000700504009617040008B50321044A0548F5
:1095D0001EF0B4FEBDE80840034819F0CBBB00BF45
:1095E000C21704007005040014CC002008B50A4B13
:1095F000994203D00133994204D008BDBDE8084028
:10960000FFF7E2BF0321054A05481EF097FEBDE8BB
:10961000084004F069B800BF010014F1FB17040012
:10962000700504002DE9F04F85B0037804465A1EFA
:1096300002AF132A00F21B81DFE812F014001700BA
:109640001900270025003800FC00190154005F00B4
:10965000E000E7008500FE00000111011301150183
:1096600019011701834A032169E0834AFBE70321BB
:10967000824A83481EF062FE03216368814A804863
:109680001EF05AFE0EE0804AEDE703217F4A7C4837
:109690001EF054FE1FF0ECFC002200237C497D48A4
:1096A00019F0F4FF0C37BD46BDE8F08F03217A4A6C
:1096B00073481EF043FED4E906316C468AB002AA14
:1096C0007648D36140F201331384754BC2E905013A
:1096D00042F8103F00234FF41351694802F066FB33
:1096E000A546DFE703216F4A65481EF027FEA06903
:1096F000FFF76CFEFFF71AFFD4E703216A4A6048C0
:109700001EF01CFED4E9066500220023674819F00C
:1097100073FB044688B9B5F5806F02D3644A012112
:109720000DE0644B31462A46184626F0D2F86249CD
:109730004455584825F045FFB4E702215F4A504898
:109740001EF0FCFDAEE703215D4A4D481EF0F6FD1C
:109750002669A368072E28BF0726E9461F2B8AB073
:109760009846626828BF4FF01F0802AD40F2013BE7
:10977000EA612A465349DFF828A1C5E90513A5F88F
:1097800020B042F810AF00234FF413513C487A60E8
:1097900002F00CFBD4E90531CD468AB04A48EB61B2
:1097A000C5E90501A5F820B0C5F810A000234FF4C5
:1097B00013517A68324802F0F9FACD464FF00009A9
:1097C000424D3246E16842482E4426F082F886F83F
:1097D00010904246616805F1180026F07AF805EB12
:1097E000080282F818906369C8210093A369394A76
:1097F00005F138001CF0F8FA29469AE76C46D0E9E2
:1098000001318AB002AA34485BE7E3686C46D0E9CC
:1098100001108AB002AAC2E9071340F201332F4DAA
:1098200093842F4BC2E9055042F8103F00234FF4B8
:10983000335152E72B4A16E72B4A14E703212B4AF0
:109840000F481EF07BFD0321294A0D481EF076FDCE
:109850004FF420320023274819F012FF22E7264A4E
:1098600001E7264AFFE6264A59E7264AFBE6012198
:10987000254A04E72D1804004A180400661804005D
:10988000700504008A180400AF180400CE18040004
:1098900060CE002088CD0020E618040006190400E0
:1098A000040000011D1904003D1904002CCC002007
:1098B00065190400EC0D012038F40020861904001D
:1098C000AF190400CF190400E119040048F4002086
:1098D00058F400201A1A0400EF1904001F1A04009B
:1098E00005000001561A04006F1A04008C1A0400C7
:1098F000A81A040030CE0020DC1A0400011B04006A
:10990000231B04004D1B0400651B040090B58DB0A3
:1099100000AF2C220021381D26F002F805233B71F0
:10992000134B14491846BB61FEF76AFF1B226C46B5
:1099300088B0FA616A464FF400730F4993830F4B66
:10994000C2E9051042F8103F00234FF4E6510C48DD
:1099500002F02CFA381DA54603F060FC034620B146
:109960000121084A06481EF0E7FC3437BD4690BD89
:10997000B00D01208A1B0400A61B04000300000197
:1099800070050400C91B0400F0B58FB002AF2C2293
:109990000021381D25F0C4FF0523394D3B71BD6101
:1099A00025F08EFE04460E4625F08AFE4FF47A72AC
:1099B000A0FB020302FB0131C00B40EA4140A4FBC3
:1099C000023102FB06110A22DB0B43EA4143B3FBDF
:1099D000F2F102FB1133019000933C211923284638
:1099E000284A1CF001FA6C4688B0F86102AA264B9E
:1099F000C2E905354FF400739383244B42F8103FBE
:109A0000234800234FF4E65102F0D0F9381DA54653
:109A100003F004FC98B101211E4A1D481EF08EFC83
:109A20001D4CD4E8AF3F002B0CDCD4E8AF3F012144
:109A30001A4A17481EF080FC3437BD46F0BD03219A
:109A4000174AEAE723680321164A11481EF074FCFE
:109A50004FF47A734FF4004540F2E7300021246858
:109A60004FF47A725C430023E4FB0501FEF7A4FE89
:109A700002460B460C480D4919F008FEDCE700BF12
:109A8000740D0120FA1B04001F1C040003000001D8
:109A900070050400301C0400D8C50020611C0400BF
:109AA000451C0400931C040088CD002060CE0020DB
:109AB0002DE9F04F594E83B0304602AFFEF7A8FEB5
:109AC000574CDFF86091E0604846FEF7A1FE0321A5
:109AD000554A606055481EF031FC5548554B43606F
:109AE000554B036109F086F85448554B4360554B7C
:109AF000036109F07FF80321534A4C481EF01EFC15
:109B000001200BF0DDFF044650B103464F4A01210E
:109B100046481EF011FC20460437BD46BDE8F08FD4
:109B200001200BF0DFFF044610B10346484AEEE780
:109B3000E84688B002AD474B4FF4007BC5E90536D7
:109B40002E46DFF814A1A5F81CB046F810AF4FF46C
:109B5000E65103463246354802F028F93F4BA5F856
:109B60001CB0C5E90539C5F810A04FF4E6512346ED
:109B700032462E4802F01AF9C5460FF061F938480E
:109B80000FF090F9034620B10121364A27481EF014
:109B9000D3FB3549354819F0B3FB3549354819F041
:109BA000AFFB3549354819F0C9FC3549354819F03E
:109BB000C5FC3549354819F0A3FB00234FF400528A
:109BC0003349344800936FF00F0319F049FC13F048
:109BD000CBFE4FF0FF334FF0FF322F4819F00CF956
:109BE00003212E4A11481EF0A9FB2D4803F07EF9EF
:109BF000034608B12B4A8AE703212B4A0B481EF083
:109C00009DFB074803F0DAF9031E01DA274A7EE7D5
:109C10000321274A05481EF091FB7CE7ACC80020D1
:109C2000C4C500202CC80020BA1C04007005040024
:109C30005CF50020ED950100030014F148F50020CB
:109C400019950100020007D2D71C0400131D04005F
:109C5000321D0400551D040003000001631D0400B3
:109C600041830300711D04005194010048F4002059
:109C70005995010038F400208999010060CE002038
:109C80003183030030CE00200D99010028F400201C
:109C90007831012088CD002014CC0020991D0400CB
:109CA00025960100AE1D0400E01D0400021E040004
:109CB000231E0400F0B5002421F00302184D194EB4
:109CC000194F0244904218D1002301F003001044C0
:109CD00082421FD112484C405843124B4FEA704009
:109CE0005843124B604080EA10405843104B80EAC2
:109CF0005030584380EA1040F0BD50F8043B6B43AD
:109D00004FEA7343734363404FEAF34303EB830328
:109D1000DC19D7E712F8015B45EA0323D8E700BF57
:109D2000512D9ECC9335871B646B54E66BCAEB8533
:109D300035AEB2C2F8B50F4600293BD00668012205
:109D400030461EF03CFB0146044630461EF0FFFA4A
:109D5000C3070DD4AF23184A184919481EF04DFD0A
:109D6000394618481EF049FDAF2113481EF03CFD4E
:109D7000214630461EF001FB2518294600223046B8
:109D80001EF0E5FA2D1AAC420BD0B7230A4A0E4951
:109D90000B481EF032FD39460C481EF02EFDB7214F
:109DA000E3E7214630461EF0EEFA2146BDE8F840D2
:109DB0001EF02ABCF8BD00BF6B1E04008E1E0400FE
:109DC0009F1E0400BC1E0400F41E04001A1F0400A1
:109DD0002DE9F8430F4606681446B2684B1EB2F5EB
:109DE000004F34BF042108213B4010D0C7F10009C7
:109DF00009EA0709494503F1FF3028BF49461842DF
:109E00000CD11F46DCB900252846BDE8F8838F42F7
:109E100013D82146BDE8F8431EF038BC2E494FF454
:109E2000A2732E4A2E481EF0E8FC2E481EF0E5FCD8
:109E30004FF4A27129481EF0D7FC9946E2E7B2EB35
:109E4000D40FE0D9E319591A10461EF0C2FA0146A0
:109E500030461EF018FB80460028D4D0B36809EBCA
:109E6000C005B3F5004F34BF042308231D44354417
:109E70007B1E1D44B5FBF7F57D43A5EB090529467F
:109E800030461EF09CFA2C44073424F00704A41B2F
:109E9000804507464FEAE40408D202464146304670
:109EA0001EF02BFB414630461EF06CFB3946304617
:109EB0001EF063FA3844844208D2394630462246BE
:109EC0001EF01BFB214630461EF05CFB012239468A
:109ED00030461EF058FA97E7561F04006B1E040028
:109EE0009F1E0400711F04002DE9F74F91461F4685
:109EF0000E460468009031B93A46494603B0BDE8C1
:109F0000F04FFFF765BF3FB9FFF714FF4FF00008B0
:109F1000404603B0BDE8F08F02F1FF3A1AEA020FA3
:109F20000ED04D4940F289134C4A4D481EF065FC55
:109F30004C481EF062FC40F2891148481EF054FC67
:109F4000D4F808B0BBEBD70FE0D920461EF037FAA3
:109F50000146054620461EF010FABBF5004F2CBF07
:109F60000822042202EBC5022244B31A8046F918E3
:109F7000584601931EF02DFA8346B9F1000F02D026
:109F800016EA0A0F44D1C3450ED00FD2AB445A464D
:109F9000294620461EF0B1FA2946012220461EF02D
:109FA000F2F959461EF030FBB046B1E705EB080A5E
:109FB0000122514620461EF0CAF9C30728D4514653
:109FC00020461EF0DAF94044584521D35146204638
:109FD0001EF042FA514620461EF0CFF9ABEB0808BE
:109FE00040450AD905EB0B07514620463A461EF07C
:109FF00084FA394620461EF0C5FA524629462046C4
:10A000001EF0A2FA0122294620461EF0BCF9CBE739
:10A010003A4649460098FFF7DBFE804600283FF4A9
:10A0200075AF294620461EF0A8F9A368019AB3F53A
:10A03000004F34BF04230823C2EBC002D21ABA4235
:10A04000314628BF3A46404625F043FC3146009849
:10A05000FFF770FE5CE700BF561F04006B1E040094
:10A060009F1E0400711F0400B2F5802F2DE9F041FE
:10A0700010D2042A28D843494FF4F973424A43487E
:10A080001EF0BBFB42481EF0B8FB4FF4F9713E488E
:10A090001EF0AAFB0823D21ACC1D114424F0070499
:10A0A00021F00701091B17294FEAD1060ED83949BB
:10A0B00040F2FB13344A35481EF09FFB34481EF033
:10A0C0009CFB40F2FB11E2E70423E4E70027046075
:10A0D00031463046A660E7601EF084F90121421D3A
:10A0E000804630461EF075F99200D51DED082844D3
:10A0F000B0423AD8B8F1FF3F3946A2F1100204F15C
:10A100001000B8BF3A4625F00BFC2A4639462046D7
:10A110001EF051F93B463A46394620461EF022F9D8
:10A12000A6EB05082046394601221EF02CF94246CE
:10A1300029461EF040F92B463A46294620461EF095
:10A1400011F9314620461EF036F943463A4631466B
:10A1500020461EF007F93146204601221EF013F971
:10A160002946BDE8F0411EF00DBA0B494FF40373C8
:10A17000054A06481EF041FB05481EF03EFB4FF421
:10A18000037184E78E1F04006B1E04009F1E0400F1
:10A19000AF1F0400C81F0400F11F04002DE9F04F99
:10A1A00091B0009302F004030293C2F3C20301339F
:10A1B000840705460E46DDF868800392059340F05B
:10A1C000F681041D30B1072909D86FF01B0011B0CA
:10A1D000BDE8F08F01F00706341DC6F108064FF008
:10A1E00000094FF0040B009B4F46013B01934FF0D9
:10A1F000FF324B46DA46CDF810900DB10099216040
:10A200000598002800F3D78098480099814203D32D
:10A2100097488142C0F0CF800399A4EB050E8907CF
:10A220004FEA9E0040F1E2804FF0000CCCE07A282B
:10A230005AD84B280CD8472856D829282AD8252858
:10A2400051D051D8202877D023384342434173E07E
:10A250004C382E2848D8DFE800F06F47474747477B
:10A26000474747474747494747474747474747596A
:10A270004749495959596F496C476F471849184719
:10A2800047807D49474749477D00002000234FF024
:10A29000040B39E001212A38C0B201FA00F010EABB
:10A2A0000E0F49D110F0625C30D110EA010343D0A7
:10A2B0006046013C5C44B4FBFBF40BFB04F4002D52
:10A2C00060D0AAEB050CA444B4453FF67EAF00284D
:10A2D0006AD1BAF1040F45D158F8040B20604FF051
:10A2E000040A043428E0013A002325E0019B13F816
:10A2F000013C6C2B33D10020019B13F8023C6C2BEA
:10A300000346C4D14FF0080BDA46D2E708F107083C
:10A3100028F00708073424F00704F8E802AB35B149
:10A3200006982044B0423FF650AFC4E900AB00238A
:10A3300008344FF0080BDA46019911F8010F01912A
:10A34000002800F0BC80002B7FF471AF2528F3D1EA
:10A35000012301324FF0040BEDE7184696E7002089
:10A360000346A6E7BAF1080F40F09B8008F1070802
:10A3700028F00708F8E80201C4E900014FF0080AD4
:10A380000834D9E780B9BAF1040F02D108F1040802
:10A39000A5E7BAF1080F40F0848008F1070828F01B
:10A3A000070808F10808E9E705990139059158F807
:10A3B000041B009121E7039988074AD54FF0010C4F
:10A3C000A4EB050E4FEA9E00BEF5007F1ED329497F
:10A3D0004FF41F73284A29481EF00FFA28481EF030
:10A3E0000CFA4FF41F7124481EF0FEF90F2F0FD8FE
:10A3F000002D49D007F140010DEB010C0CF8200CA9
:10A400000CF8102C04980130049021E00F2F0CD987
:10A41000184940F28123184A18481EF0EEF91948ED
:10A420001EF0EBF940F28121DDE7CDB107F14001EB
:10A430000DEB010EC0B20EF8200C0EF8102CBCF182
:10A44000000FDFD060F07F000EF8200C09F1010949
:10A450000137C5F108014FF6DA7E043406916BE747
:10A46000BCF1000F10D00136F2E700BF5C01040020
:10A4700004920400AF4104001C2004009F1E04004D
:10A480004A2004006B200400029802360028DFD125
:10A490000098CDE90632FEF7BBF9DDE90632064445
:10A4A000D6E740F2C623434A434944481EF0A5F983
:10A4B000514643481EF0A1F940F2C62193E7631BC1
:10A4C000B3F5806F0CD33C4940F2D223394A3B4864
:10A4D0001EF093F93B481EF090F940F2D22182E73A
:10A4E0001DB9A6F10804E01871E6029A9B082860DD
:10A4F0002B709DF81030C2B1EB7085F80290B9F165
:10A50000000F05D0002208A8C5F1010C97420ED11A
:10A510004FF0000AC5F101030DF1200801930DF180
:10A52000300B574512D1601B51E66B70E5E710F810
:10A53000013B190608D504EB0C0EB64503F07F036A
:10A540003FF643AE04F8013B0132DFE7B9F1000FFB
:10A5500003D098F90020002A17DB029BD3B11AF828
:10A560000B2004F8012B0022019B98182044B042D4
:10A570003FF62BAE98F80000009904F8010B204636
:10A58000039225F0A6F9039A14440AF1010A08F18E
:10A590000108C6E798F8002055F822300093029B86
:10A5A000009845F82230FEF733F9421CDCE76FF0E3
:10A5B0000D000CE61C200400AF4104009F1E0400A7
:10A5C000852004009A2004002DE9F04F97B000AFD9
:10A5D00089460446D7F880B0FA623B6258B9A94967
:10A5E0004FF46673A84AA9481EF007F94FF4667144
:10A5F000A5481EF0F9F8CBF3C00390F802A0BB61A8
:10A6000041B9457800780AEB800020444D4517D8C1
:10A61000A0EB0409E378FB61BAF1000F02D01BF054
:10A62000010F16D1FB6953BBFB6A1BB1494620469B
:10A630003A6A98474D4628465C37BD46BDE8F08FDC
:10A64000461C3046FEF7E4F80130304409F10109B8
:10A65000DCE7626823787A62FA6A9900796104EB30
:10A660008301002A40F002810E464FF000084D465B
:10A6700001EB0A094E454CD101EB0A0610E01BF034
:10A68000020FD1D023789A007A61626804EB8301CB
:10A690007A62FA6A002A77D14D46904601EB0A06A3
:10A6A0001BF0050F0CBF02230123FB62FB6906EBC5
:10A6B000430A0BF00203BB625645BCD016F8021BDE
:10A6C00016F8013C54F82390714B994502D3714B15
:10A6D000994536D3BB69002B40D0786A1EF039F813
:10A6E00000283BD0E9468AB06A466B4B53617B6ACF
:10A6F000C2E906314FF400731384684B42F8103FEF
:10A7000000234FF41251664801F050FB023DCD4644
:10A71000D2E716F8013BF96254F82300FEF778F807
:10A72000D7F88430F96A01304BB1D7F888309845B2
:10A730003EBFD7F8843023F8180008F1010805441B
:10A7400098E7BB6923B1786A1EF003F80028C9D1E5
:10A750001BF0010F05D1FB6AED1AADE7BB6A002BB8
:10A76000AAD04846FEF754F8D7F8843053B1D7F84A
:10A77000883098453FBFD7F88420431C22F8183012
:10A7800008F10108054497E7BAF1000F74D01BF0F7
:10A79000040674D0D046002607F1480052463B61BB
:10A7A000B96225F096F8B96A3B6901EB0A02BA6210
:10A7B000FA69F9695200FA60BA6A02EB41023A6139
:10A7C0000BF00202BA60BA6A39698A426AD16278C9
:10A7D0001BF0020F18BF00217A6208BF4FEA580130
:10A7E000B2181BF0010FD2B240F0E5801BF0040F4D
:10A7F00014BF40460020BB616270A070E17020462B
:10A800003A6A7969FB6A9847051EFFF614AFBB697F
:10A81000414623707B6A3A6A6370FB6984F802A040
:10A82000E37007F14800FB6A9847B0F10008C0F2F6
:10A83000F0807B69A9EB0A01C91AFB683A6AC91A58
:10A84000D7E90A0398470028C0F2E5804FF0000BD3
:10A85000A84408EB000507F1380AB345C0F0AD8005
:10A8600000213A6A0846FB6A9847E4E656464FF0EC
:10A87000000807F1380091E75646D04695E7B04604
:10A8800093E700BFB12004001C2004009F1E0400B9
:10A890005C01040004920400CC20040004000001C8
:10A8A00078050400BA6A12F8021B12F8015CBA6259
:10A8B00054F82500594A904202D3594A904218D37D
:10A8C000BA693AB1786A7B601DF043FF7B68002863
:10A8D0007FF479AFBA68002A4CD00F2E40D9514985
:10A8E00040F24C43504A51481DF087FF40F24C4122
:10A8F0007EE6BA693AB1786A7B601DF02AFF7B6810
:10A9000000287FF460AF1BF0010F0BD00F2E27D96A
:10A91000444940F24243444A44481DF06EFF40F22D
:10A92000424165E61BF0040F3FF44DAFB8F10F0F45
:10A9300009D93F4940F245433B4A3C481DF05DFF81
:10A9400040F2454154E608F1280207F1300008F1D1
:10A95000010102EB000808F8105C5FFA81F832E7A9
:10A9600006F1280207F13000711C161806F8205C69
:10A97000CEB228E7B8F10F0F09D92D4940F24F4365
:10A98000294A2A481DF039FF40F24F4130E608F1CC
:10A99000280207F1300C08F10100944407F1580235
:10A9A00008F1020852FA80F00CF8101C5FFA88F8DF
:10A9B00000F8105C07E700201DE71BF80A3054F888
:10A9C000239087F83730D7F88430FBB133F81B80F9
:10A9D00001213A6AFB6A07F13700984700281ADB21
:10A9E0000544B8F1000F06D14846FDF711FF00F10C
:10A9F00001081FFA88F8414648463A6AFB6A9847B8
:10AA0000002808DB05440BF1010B26E7D7F884800A
:10AA1000DEE745460FE605460DE600BF5C01040093
:10AA2000049204006F2104001C2004009F1E0400F7
:10AA30008E210400014B1860704700BFDCC5002068
:10AA400080B505460E46174698461AF01FF803468D
:10AA500025F07AFB0446DFF81890424649F80030AA
:10AA600039463046A84754F8090003F07BFA00BF86
:10AA700008000000032800B508D925F065FB09226D
:10AA8000074B1A504FF0FF305DF804FB3022054BA6
:10AA900002FB0033D3E8AF3F002BEED00020F3E7FA
:10AAA0000C00000078F500203023434330B50D49F9
:10AAB00008330B44D3E8AF2F92B1541ED3E8EF5FB5
:10AAC000954204D1C3E8EC4FBCF1000FF6D1F1D1AF
:10AAD000012A05D13023584300230A180B50536034
:10AAE00030BD00BF70F5002038B504461546FFF7AD
:10AAF000C1FF00280DDB30236343074AD0184068AC
:10AB0000086015B10C3313442B6030235C4310599B
:10AB100038BD0020FCE700BF70F5002070B50025AF
:10AB20004FF0FF334FF0FF3217481DF057FE174B21
:10AB3000D3E8AF2F82B10135042D03F13003F7D1F3
:10AB400025F002FB17224FF0FF35114B1A500E482B
:10AB50001DF046FE284670BD30246C43D3E8EF0F4D
:10AB60000130C3E8E10F0029F8D10A4E3319325100
:10AB70005A6004F10C00304424F082FC04F12000FF
:10AB8000304424F02EFDE2E7B8CA002078F500201A
:10AB90000C00000070F5002030B40446302510464B
:10ABA0006C43084A151911516860EB6240B1C368E3
:10ABB00033B10C34131940F2051230BC1DF0FFBD47
:10ABC00030BC704770F5002038B50D460446202291
:10ABD000002124F0A5FE0022EB68E361AB68A361CD
:10ABE0002B6823626B68A26263622A6923B1591ED3
:10ABF000194208BF42F0010222610122002104F142
:10AC00002C0024F07AFC48B1054906482F23064A57
:10AC10001DF0F3FD2F2104481DF0E6FD38BD00BFF7
:10AC2000E52104009F1E0400BF2104002DE9F04F20
:10AC3000002789B0CDE90123436A04468B42884648
:10AC4000BA460597079755D34FF0200B00F114062D
:10AC5000EFF3118300938BF31288BFF36F8F3046AD
:10AC6000DDF800901AF0CEF858B988234A4A4B49CB
:10AC70004B481DF0C2FD31464A481DF0BEFD8821FB
:10AC800060E030461AF0E2F8079A2AB139462046C9
:10AC90001DF094FE0023079306A920461DF0BAFD7F
:10ACA0000699054641452ED32268236A204613F8AB
:10ACB000221003EB820A21F0030103F8221021681D
:10ACC00042461DF0CBFDE3682060984216D0002577
:10ACD00030461AF0A5F840B389F31188BFF36F8F9F
:10ACE000059929B1A2690AB120469047002305932E
:10ACF000002DADD1504609B0BDE8F08F236943F077
:10AD000008032361E3E718B120461DF0C1FDDFE72A
:10AD1000DDE90132134337D0039124F066FC039937
:10AD200090BB30461AF07CF878B940F231131A4AD9
:10AD30001D491B481DF061FD31461C481DF05DFD9D
:10AD400040F2311114481DF04FFD009B83F3118830
:10AD5000BFF36F8F04F12C00DDE9012318F04CF8EC
:10AD60000546EFF311898BF31288BFF36F8F3046DE
:10AD70001AF048F800283FF478AFB5FA85F5304668
:10AD80001AF064F86D09A3E7204607AB05AA276807
:10AD90001DF09DFD05469BE7EE2104001B220400EB
:10ADA0009F1E040030220400462204005D2204009D
:10ADB0002DE9F0410446C36908460E46984704F160
:10ADC00014050746EFF31188202383F31288BFF39D
:10ADD0006F8F28461AF016F868B988231A4A1B495B
:10ADE0001B481DF00AFD29461A481DF006FD882162
:10ADF00015481DF0F9FC28461AF028F833783A4631
:10AE000043F001033370616820461DF027FD606048
:10AE100020461DF0EEFD28461AF002F868B940F20F
:10AE20003113094A0C490A481DF0E7FC29460B4832
:10AE30001DF0E3FC40F23111DAE788F31188BFF32B
:10AE40006F8FBDE8F08100BFEE2104001B220400DB
:10AE50009F1E040030220400462204005D220400EC
:10AE60002DE9F843044600F11407EFF3118820237D
:10AE700083F31288BFF36F8F384619F0C3FF05467E
:10AE800068B98823344A354935481DF0B6FC39463F
:10AE900034481DF0B2FC88212F481DF0A5FC38462F
:10AEA00019F0D4FF2369A26813F0080F02D1636878
:10AEB0009A4200D9636A9B1A002B3FD0216A11F88D
:10AEC000223001EB820913F003003AD0022803D1AB
:10AED00051F82260B60805D1D8071FD44846E36967
:10AEE00098470646A168324620461DF0B7FC314619
:10AEF000A06020461DF0C0FC384619F091FF10BB41
:10AF000040F23113144A184915481DF076FC3946B1
:10AF100016481DF072FC40F23111BDE743F0020308
:10AF200001F82230E3694846A56898472946024659
:10AF300020461DF093FC0025A060DDE71D46A946D4
:10AF4000DAE70546FBE788F31188BFF36F8F002D22
:10AF50008BD14846BDE8F883EE2104001B22040093
:10AF60009F1E040030220400462204005D220400DB
:10AF70002DE9F0410446C36908460D46984704F19F
:10AF800014060746EFF31188202383F31288BFF3DA
:10AF90006F8F304619F036FF68B98823274A284951
:10AFA00028481DF02AFC314627481DF026FC882140
:10AFB00022481DF019FC304619F048FF2B786FF33A
:10AFC00000032B7023699B0705D5E268236A03EB16
:10AFD00082039D4222D12B786FF341032B70D4E979
:10AFE0000231994204D13A4620461DF037FCA06058
:10AFF000394620461DF040FC304619F011FF90B94B
:10B0000040F231130D4A11490E481DF0F6FB31464E
:10B010000F481DF0F2FB40F23111C9E72B6867F3CE
:10B020009F032B60E8E788F31188BFF36F8F04F16B
:10B030002C00BDE8F04117F09DBE00BFEE210400DA
:10B040001B2204009F1E040030220400462204003C
:10B050005D22040070B5044600F11405EFF311867B
:10B06000202383F31288BFF36F8F284619F0CAFE9E
:10B0700068B988231A4A1B491B481DF0BEFB2946A4
:10B080001A481DF0BAFB882115481DF0ADFB284673
:10B0900019F0DCFE2369A06813F0080F02D1636881
:10B0A000984213D9646A241A284619F0B9FE78B96F
:10B0B00040F231130A4A0E490B481DF09EFB294607
:10B0C0000C481DF09AFB40F23111DDE71C1AEBE74A
:10B0D00086F31188BFF36F8F201E18BF012070BD4B
:10B0E000EE2104001B2204009F1E040030220400F5
:10B0F000462204005D220400044608B5EFF31183E4
:10B10000202383F31288BFF36F8F0CF09BFB204644
:10B1100002F0DEFE02481DF045FB1DF027FFFCE7B4
:10B12000722204002DE9F84F0446A38B0846190744
:10B13000154612D4022803F0070165D120461DF000
:10B1400065FC88B10138042800F23781DFE810F08F
:10B150005C0035018200D400040101280CBF43F0DB
:10B16000100143F02001A1831434204619F058FE49
:10B17000002840F09D819A4940F23113994A9A483B
:10B180001DF03BFB2146B1E003F00702501F0128F0
:10B190001ED80020062A2768C4E9000014D13A46C8
:10B1A00003E0E08B0130E0831268002AF9D123F03C
:10B1B000070343F002022046A2831DF027FC90B350
:10B1C00042F02002A2832EE023F007039AB2F2E7B6
:10B1D000042A33D123F007039AB22046A2831DF03C
:10B1E00015FC10B142F02002A283A38B03F00709E3
:10B1F000894540F0EC80A18BCA0640F1508121F0D6
:10B200001003A38301F00701D4F81880A38BB8F1D1
:10B21000000FB9DA0022276823F00703C4E90022EF
:10B2200043F00103A383A38B03F00709894540F092
:10B23000CF80002FDFD00026B24644E06B4940F2B9
:10B240001B136B4A68481DF0D8FA40F21B1168487E
:10B250001DF0CAFA49B167494FF4AB73644A6248BA
:10B260001DF0CBFA4FF4AB71F1E723684BB962499B
:10B2700040F257135E4A5C481DF0BFFA40F2571186
:10B28000E5E723691E684EB95C494FF4AD73584A2F
:10B2900055481DF0B2FA4FF4AD71D8E70F46884615
:10B2A0004FF00609A38B23F0070343F006039BB27C
:10B2B000A383A268002A40F08D80002F40F08D808B
:10B2C000002E98D0BA4643F0080304F1140B5846F8
:10B2D000A38319F0A5FD002840F09A80404940F270
:10B2E0003113404A40481DF088FA594644481DF041
:10B2F00084FA40F23111ADE0022909D0414940F20F
:10B300005D133B4A38481DF078FA40F25D119EE724
:10B31000E78B4FB13C494FF4AF73354A32481DF0CB
:10B320006CFA4FF4AF7192E723695E684EB9334906
:10B3300040F261132E4A2C481DF05FFA40F2611171
:10B3400085E7A38BB84623F0070343F004039BB2C1
:10B350004FF00409A383ACE7012909D02B494FF42E
:10B36000B273234A20481DF048FA4FF4B2716EE7D9
:10B3700023684BB9204940F265131D4A1A481DF055
:10B380003CFA40F2651162E723699E684EB91B4999
:10B390004FF4B473164A14481DF02FFA4FF4B471E9
:10B3A00055E70027A38BB84623F0070343F00503B6
:10B3B0009BB24FF00509A3837BE70C4940F26B1366
:10B3C0000B4A09481DF019FA40F26B113FE70027BC
:10B3D00000266EE74FF0010A75E7924673E700BF5B
:10B3E00046220400EE2104009F1E0400AF41040029
:10B3F0009B220400C0220400CC220400EF2204009F
:10B400005D220400062304001C2304002B230400F7
:10B4100085F31188BFF36F8FBAF1000F1CD177BB92
:10B4200016B120462549B047EFF31185202383F359
:10B430001288BFF36F8F584619F0E4FC38BB88239D
:10B440001F4A204920481DF0D8F959461F481DF0D1
:10B45000D4F988211A48FBE6A1680029DFD00D68DD
:10B460000029DCD043464A462046D1F804A0D04704
:10B470001DB12B6829461D46F2E72B46FAE73946EF
:10B4800043464A4620463F681DF0ECFAC7E7584657
:10B4900019F0DCFCA38B23F00803A383ABE68B0637
:10B4A0007FF562AE21F02003A38301F0070145E69A
:10B4B00085F31188BFF36F8FBDE8F88FD1B4010019
:10B4C000EE2104001B2204009F1E04003022040011
:10B4D000F8B504460D4600F11406EFF3118720235A
:10B4E00083F31288BFF36F8F304619F08BFC68B975
:10B4F00088230C4A0C490D481DF07FF931460C4851
:10B500001DF07BF9882107481DF06EF9304619F0CF
:10B510009DFCA5613A462046BDE8F8400121FFF7B1
:10B5200001BE00BFEE2104001B2204009F1E040088
:10B53000302204002DE9F04704460F461DF082FA40
:10B54000051E68DB04F11409EFF3118A202383F34D
:10B550001288BFF36F8F484619F054FC804660B9DB
:10B560008823384A384939481DF047F94946384850
:10B570001DF043F98821334842E0484619F066FC43
:10B580004FF6FF72E38BA68B934206F0070645D079
:10B59000022E15D135460133E383484619F040FCAD
:10B5A000002841D140F23113264A2A4927481DF08C
:10B5B00024F9494628481DF020F940F23111DAE714
:10B5C000062E13D8DFE806F0092D1212090409002F
:10B5D0006FF085054FF00008DFE700233B606368EC
:10B5E00083B9C4E9007786B13546F3E71B491748AC
:10B5F0004FF4E4731A4A1DF000F94FF4E47118484F
:10B600001DF0F2F81F606760EDE752460221204608
:10B61000FFF788FD35462846BDE8F0876FF00A053C
:10B62000D8E76FF00405D5E78AF31188BFF36F8F71
:10B63000B8F1000FEFD000233246394620461DF006
:10B6400011FAE8E7EE2104001B2204009F1E04000B
:10B6500030220400462204005D2204002B23040053
:10B660009B22040008B54268034602F00302022A46
:10B6700081600AD0032A4FF0000103D0012A0AD1C9
:10B68000596006E01868596008BD186800225A60C1
:10B6900058B90020F8E7064906484523064A1DF038
:10B6A000ACF8452104481DF09FF81AF0B9FAF0E70C
:10B6B000AF4104009F1E04004123040030B5002266
:10B6C00089B00F490F4824F042F8002200230024DB
:10B6D000CDE906230E230C4DCDE903344FF400626F
:10B6E0002846CDE90144094B0949009418F09CF91A
:10B6F0000849284623F07FFF204609B030BD00BF2F
:10B700005DB8010020D3002090CE002049BB01008D
:10B7100078510120672304002DE9F04704460746CD
:10B720004FF00109DFF8508014B93846BDE8F087C2
:10B7300094FAA4F5B5FA85F509FA05F32E0108EB9C
:10B7400005156FEA030A24EA03042B7B002BEBD0D8
:10B7500058F806301B694BB94644736804222846E2
:10B76000196807EA0A0700F0FBFADDE72846984760
:10B770000028D9D1F0E700BF800604002DE9F0478A
:10B78000DFF8B8902E4C8046A9EB04038F2B0F46B0
:10B790000BD92C4940F23F132B4A2C481DF02DF8B1
:10B7A00040F23F1128481DF01FF829481DF0ACF960
:10B7B000064660B300252846BDE8F087237B6BB1C1
:10B7C0002368DB680BB12046984723681B69B3B92F
:10B7D000636804222046196800F0C2FA013610346A
:10B7E0004C4518D91B494FF4A673174A17481DF04A
:10B7F00004F819481DF001F84FF4A671D2E720466D
:10B8000098470028E4D00AFA06F31D43E6E7054608
:10B810004FF0010AE4E7D1D3B8F1000FCBD0002DEF
:10B82000C8D02846FFF778FF0546002FF7D0002143
:10B830004FF4A47019F0F4F8F1E700BF900604008B
:10B84000800604009C2304006F2304009F1E040054
:10B8500044F60020CC230400ED230400014817F037
:10B8600089BA00BFFCCB0020014B53F82000704781
:10B870008C09040008B5034608462BB1044A13603E
:10B8800000F0ACFD002008BD6FF01500FBE700BF25
:10B89000E0C5002010B5044C237813B9034817F015
:10B8A00069FA0123237010BDEC110120FCCB0020AC
:10B8B00010B5044609481DF027F93CB1084BD3E800
:10B8C000EF1F0139C3E8E21F002AF8D1054823F031
:10B8D0004AFFBDE81040044817F04CBA3CF600207F
:10B8E00040F6002020D30020FCCB002000200146A1
:10B8F000034BD3E8EF0FC3E8E21F002AF9D17047EA
:10B900003CF6002070B5FFF7F1FF05460F4C104ED6
:10B91000B44219D90F4940F2FF130F4A0F481CF0E7
:10B920006CFF0F481CF069FF40F2FF110A481CF041
:10B930005BFF63685B792BB123685B6813B12946B1
:10B94000204698471034E3E7F3D370BD8006040027
:10B9500090060400CC2304006F2304009F1E040003
:10B96000ED23040010B5044C04492046FFF72CF9E0
:10B97000034B1C6010BD00BFD0C900207809040033
:10B9800034F6002008B50023074A4FF40041137035
:10B99000064A07481360074A1360FFF76BFFBDE8CC
:10B9A0000840FFF7DFBF00BFED1101203CF600208B
:10B9B000058B030040F600200146002200230148C9
:10B9C000FFF734B9D0C900200148FFF749BA00BFDA
:10B9D000D0C90020024B01461868FFF7C9BA00BF62
:10B9E00034F600200148FFF735BB00BFD0C9002066
:10B9F00070B52E4B1878002857D0FFF7E5FF0546A5
:10BA000040B32B4BD3E8EF1F0139C3E8E21F002AF4
:10BA1000F8D1284C284EB44218D9284940F2F313E3
:10BA2000274A28481CF0E9FE27481CF0E6FE40F2B1
:10BA3000F31123481CF0D8FE63685B7923B12368B7
:10BA4000294620461B6898471034E4E7F4D328467B
:10BA5000FFF7C0FF1D4B1E4C1B68002B19DD23F0A8
:10BA60002FFE4FF47A72A0FB020302FB0131C30BDD
:10BA700043EA4143D4E900209B1A40F2E9324FEAFD
:10BA8000D13161EB0001934271F1000101D3FFF765
:10BA900039FFD4E9003213F57A7342F10002C4E9A8
:10BAA0000032BDE87040FFF79DBF70BDEC11012072
:10BAB00040F600208006040090060400CC23040019
:10BAC0006F2304009F1E0400ED2304003CF60020B9
:10BAD00018D3002070B5154D297829BB0120FFF738
:10BAE0004DFE134C134EB44217D913494FF4DC7377
:10BAF000124A13481CF081FE12481CF07EFE4FF4DF
:10BB0000DC710E481CF070FE63685B791BB1236822
:10BB100020469B6898471034E5E7F5D3FFF768FFA8
:10BB20000028FBD101232B7070BD00BFED11012057
:10BB30008006040090060400CC2304006F23040058
:10BB40009F1E0400ED2304002DE9F047304B314FD8
:10BB5000FB1A1B090BD1304940F292332F4A30486F
:10BB60001CF04BFE40F292312C481CF03DFE0021AF
:10BB70000846FFF703FE044650B340F267684FF0F3
:10BB8000000924F0E1FA274B274A1B58136033B110
:10BB9000264B1B68092B02DD254817F0EBF8002522
:10BBA000DFF88CA044B12046FFF7B6FD044618B973
:10BBB0004FF0FF384FF0FF39FFF71AFF064628B95C
:10BBC0005DB942464B46504617F016F93546E9E74F
:10BBD0004FF0FF384FF0FF39D3E70D4D08E0F0D2BA
:10BBE0002B689B691BB100222846114698471035E7
:10BBF000BD42F4D90F4940F28633084A08481CF088
:10BC0000FCFD0D481CF0F9FD40F28631ACE700BFA9
:10BC100080060400900604000C2404006F23040036
:10BC20009F1E04000800000038F6002040F60020A7
:10BC3000FCCB0020CC230400ED23040013B52C48DA
:10BC40001CF062FF2B4B1B78002B35D0EFF31184D7
:10BC5000202383F31288BFF36F8F274819F0D2F89F
:10BC600068B98823254A264926481CF0C6FD224982
:10BC700025481CF0C2FD882120481CF0B5FD1E4857
:10BC800019F0E4F8FFF7B4FE1B4819F0C9F868B9D9
:10BC900040F23113194A1D491A481CF0AEFD1649ED
:10BCA0001B481CF0AAFD40F23111E5E784F311882E
:10BCB000BFF36F8F02B010BD164B1B68002BF9D07D
:10BCC00050B9002200231448CDE900234FF400426C
:10BCD000002319F0EBFBEDE70928EBD10E4823F028
:10BCE00042FD0E4802B0BDE8104017F043B800BF57
:10BCF00040F60020ED11012030F60020EE21040076
:10BD00001B2204009F1E040030220400462204006F
:10BD10005D22040038F6002020D30020FCCB002058
:10BD200010B5064B04461B6898472146A06004489E
:10BD3000FFF73EF8BDE81040FFF780BFE0C50020E8
:10BD4000D0C90020044A054B9B1AB1EBD30F34BF76
:10BD500052F83100002070474005040080060400BE
:10BD60000E4B10B5C31A1B110133DBB248B90C4995
:10BD70000C48DF230C4A1CF040FDDF210A481CF070
:10BD800033FD4468237143689A7101224368196046
:10BD900043685A71BDE81040FFF77CBD800604007F
:10BDA000AC2404009F1E0400742404002DE9F04F0D
:10BDB0008FB0C1F34A2804AF0D469146B8607B604E
:10BDC0000C0DB8F1000F68D000264FF0040B4FF0B7
:10BDD0000A0A07F11403C7F80C80C7E907667E62F8
:10BDE0000193CDF808B0CDF800A007F11C0332464E
:10BDF0004846F968FEF7E8FBB0F5006F03461CD330
:10BE00006C468AB0D9F8041004AB2C481A46C3E932
:10BE1000050140F2FF71D9614FF400711984284B7C
:10BE200042F8103F4FF4125133462648FFF7BEFF49
:10BE3000A5462C37BD46BDE8F08FC0F30A0804F1D3
:10BE40001700184420F0070080083B60FFF7B4FD9E
:10BE500068F35325044640B33B6800F11001C7E97D
:10BE6000083607F11403F961CDE900A3CDF808B055
:10BE70004846154AF96807F11C03FEF7A5FB0028A0
:10BE800013DA124912484FF4A373124A1CF0B5FC9E
:10BE90004FF4A3710F481CF0A7FC04F1170020F029
:10BEA00007008008FFF788FD044668F353252A46FB
:10BEB00020467B68B9681CF059FEBAE7CC24040020
:10BEC00004000001F0050400418B03003825040044
:10BED0009F1E04000B2504002DE9F04F87B0044697
:10BEE000DDE9106ADDE9127993469846039127B39C
:10BEF0003B46524610210020CDF80090CDF814901A
:10BF0000FEF74CF9051E0BDA264940F26513264A66
:10BF100026481CF072FC40F2651123481CF064FCBA
:10BF2000B5F5006F0ADB40F2FF730221204A214879
:10BF300007B0BDE8F04F1CF072BE3D4606F1170099
:10BF4000284420F007008008FFF736FD04F00704BE
:10BF50000BF0070BE40044EA8B1444EA452444EA5E
:10BF600006540646A0B19FB13B4652462946CDF83D
:10BF700000901030FEF712F9002809DA094940F262
:10BF80008513094A09481CF038FC40F28511C4E7C2
:10BF9000434622463046039907B0BDE8F04F1CF0F7
:10BFA000E5BD00BF372504000B2504009F1E0400DB
:10BFB00041250400F0050400406820B1034BC01A7D
:10BFC00040F3CF0070474FF0FF307047400504004A
:10BFD0000EB403B503AB53F8042B01460448019398
:10BFE00002F0C0FB02B05DF804EB03B0704700BF85
:10BFF00011C00100CA0605D48B064CBF0249034993
:10C00000FFF7E6BF704700BFDD3E0400CB680400C9
:10C0100038B54B6805461A68CB680C469A4202D17F
:10C0200008461CF020FE6368D3E8EF2F511CC3E8DC
:10C03000E01F0028F8D1A3689D5463681A68E3687C
:10C040009A4209D9054906487B23064A1CF0D5FBCC
:10C050007B2104481CF0C8FB002038BDA825040043
:10C060009F1E0400792504002DE9F04F89B09B46FE
:10C07000149B9DF84CA00693159B04460593169BB4
:10C080000D469046179E0493BAF1000F00F0AD8064
:10C09000BAF1040F0BD9A34940F24D23A24AA34899
:10C0A0001CF0ABFB40F24D219F481CF09DFB06F4B9
:10C0B000807307931CF042FD06F002090246002837
:10C0C0003FD020469A49FFF783FF0746B9F1000F9A
:10C0D00008D016F0440F36D12A4620469549FFF77E
:10C0E00077FF074406F0010353B1934B204653F802
:10C0F0002A20924B9249002A08BF1A46FFF768FF90
:10C1000006F48073002B4AD006F00803002B64D19C
:10C11000B8F1000F67D0424620468A49FFF758FF22
:10C120000546069B3D44002B6ED1049B002B40F03E
:10C130008380F30700F1F08031462046FFF75AFF75
:10C14000E4E00746C2E7804B18680028C9D07F4B5F
:10C150004FF47A791B684FF46161B5FBF3F5B5FBD9
:10C16000F0F300FB135509FB05F5B3FBF1F2B5FB4A
:10C17000F0FE4FF03C0C01FB123100FB1E55B1FBF1
:10C18000FCF309FB05F5B5FBF0F50CFB131120469C
:10C190000091CDE901E56E49FFF71AFFA1E706F02E
:10C1A0000803EBB16B4B204653F82A206A49FFF78E
:10C1B0000FFF0546B8F1000F05D042462046614901
:10C1C000FFF706FF0544BBF1000FAAD05A462046F0
:10C1D0006249FFF7FDFE0544A3E74FF0000BE1E7DE
:10C1E00006F00805E6E745469BE7BBF1010F069B15
:10C1F00006D1DBB9049B002B00F0888000251BE0F2
:10C20000002BF7D0564812E056482246069B564966
:10C210001CF06EFA00280CDA544940F2A723424A77
:10C2200042481CF0EAFA40F2A7213DE74D48554646
:10C23000EBE7049B002B65D0DFF83481DFF8349105
:10C24000049F3146102F204628BF10274FF0000BC7
:10C25000FFF7D0FE5D4542DC059B494620461A7833
:10C26000FFF7B6FE4FF0010B1BF0070F03D141465D
:10C270002046FFF7ADFE5F4538D9059B494620466D
:10C2800013F80B20FFF7A4FE0BF1010BBBF1100F0D
:10C29000EAD14FF0000B20463749FFF799FE5A4686
:10C2A000059B20469A5CA2F120015F2928BF2E221F
:10C2B0003249FFF78DFE0BF1010BBBF1100F1AD0C5
:10C2C0001BF0070F03D141462046FFF781FE5F4573
:10C2D0005A46E5D841462046FFF77AFEEBE741464D
:10C2E0002046FFF775FE0BF1010BB3E7204624490A
:10C2F000FFF76EFEC8E7059B3B440593049BDB1BE1
:10C3000004939DD1BAF1000F7FF413AF204609B01A
:10C31000BDE8F04F1CF0A7BC2046084A0849FFF7CB
:10C3200057FE09E7DD250400792504009F1E04005F
:10C33000E9250400ED2504009C090400D82504002B
:10C340007F5E0400122604004CF6002048F6002010
:10C35000F6250400B0090400162604001C2604007B
:10C36000818C030011C0010065E701002126040053
:10C37000322604002A260400342604000062040049
:10C380003026040042F20F7373B58B4228BF0B4670
:10C3900005680446052168460D4A19F025FD064644
:10C3A000636828460B225B680A491CF04EFC6368F0
:10C3B0003246694628465B681CF047FC63681B22CE
:10C3C00028465B6804491CF040FC02B070BD00BF09
:10C3D000C66304005226040036260400002101230F
:10C3E000064A904206D8064A01B901231360054B5C
:10C3F00018607047012140085B00F2E740420F00DF
:10C4000048F600204CF60020F8B50D460446064FCD
:10C410004618B44201D12846F8BD14F8011BBB6888
:10C4200001485B689847F4E79802040010B5436838
:10C430001C68094822F0C0FF48B9084908489923F8
:10C44000084A1CF0DAF9992106481CF0CDF9236856
:10C450005B685C6010BD00BF98020400BC2604004D
:10C460009F1E04007E260400014B036000207047DD
:10C47000F809040070B5114B0D461C68DCB1104B77
:10C48000196800238B4202DB6FF0010070BD224669
:10C4900012F8106B864202D014460133F2E7E068CE
:10C4A00010B96FF01200F1E722F086FF0028F8D0F3
:10C4B00000202C60EAE76FF00C00E7E7ECC50020F5
:10C4C000100A040010B504460121034A03481CF079
:10C4D0009DFB0020606010BDF026040040050400B4
:10C4E0007FB50546C06801AA20F0E3FA044640B1D2
:10C4F00001210346104A11481CF091FB204604B06C
:10C5000070BD01992B6A8B42F8D0E868029A836863
:10C510009B6853B19847064650B101213346084AFB
:10C5200006481CF07CFB3446E8E76FF05706F4E75A
:10C53000019B2B62E2E700BF1027040040050400C6
:10C540003127040073B581680546002937D0D0E94A
:10C55000043601391E443144FFF7C2FF041E09DAD4
:10C560002346284A0096012127481CF062FB2046FA
:10C5700002B070BD6A6AAB68B3FBF2F402FB14341C
:10C580003CB12868141B224695F82810184423F063
:10C59000C7F9AB68E8682A68234481684C6831466B
:10C5A000A047044618B1194A03460096DBE7EB6939
:10C5B0005BB92B69AA6813442B610023AB6000248C
:10C5C000D5E7135DDB4313550134AB682A689C4201
:10C5D000F7D3E86881680C683146A047044630B15B
:10C5E00003460B4A012108481CF019FBBFE73246FD
:10C5F000EB69A9682868984704460028D9D0054AFD
:10C600000346EFE74D270400400504007B270400A4
:10C610009F270400B52704002DE9F3470D46DDE907
:10C620000A7891461E460446A8B1A1B19AB100937A
:10C63000002301938B680846DB68984702688246AE
:10C64000B6FBF2F302FB136362624BB11A4A01219B
:10C650001A481CF0DBFA6FF00D0002B0BDE8F0875D
:10C660006A462846164920F028FA019A002AF2D094
:10C6700007EB08039A4205D3616AB7FBF1F301FBAC
:10C6800013730BB10F4AE2E7C4E90096E56023613A
:10C69000A3606761B8F1000F01D1A2EB07080C9B02
:10C6A000C4F81880E3614FF0FF3323629AF8053035
:10C6B000002084F82830D0E7C92704004005040092
:10C6C0000F8E03000028040008B504481CF06AF827
:10C6D000BDE8084002481CF065B800BF30280400DF
:10C6E00065280400024B1B6803B11847704700BF60
:10C6F000ACF6002010B5044692B04422002101A8F7
:10C7000023F00EF93CB9132301A88DF80430FFF78C
:10C71000E9FF12B010BD23460121024A02481CF075
:10C7200000FCF6E79328040068050400B0B5044651
:10C7300000AF22F0C5FF4FF47A75A0FB052305FB7F
:10C740000133D20B42EA4343042120460B4A19F03D
:10C750004BFB8AB06A460A4B4FF414515361094BA4
:10C760000948C2E9063440F201331384074B42F80A
:10C77000103F1CF0D8FB0020BD46B0BDC6630400CE
:10C78000AF280400583504006805040004000001C7
:10C790002DE9F047C4B0064600AF0D4607F1080486
:10C7A00084E80300C7E9002390460021442207F1F2
:10C7B0008800994623F0B4F80623C7E9056507F118
:10C7C000140A87F88830AB4807F1580407F12403AE
:10C7D0009AE80600C7E92889C7E92F65C7F8C44069
:10C7E00011F0BEFB00281DDB0023EA4688B087F865
:10C7F000B8306A46A04B5361A04B9361032342F8C3
:10C80000103F4FF4C8519E481CF08DFB97F8B8308C
:10C81000D546032B00F2FD81DFE813F05200A5009E
:10C820000A015C01934807F134039AE8060011F00D
:10C83000DBFB002807DB0123EA4688B06A4687F85D
:10C84000B830904BD7E78B4807F144039AE80600CD
:10C8500011F0FAFD002843DB97F84C305A1E032AEA
:10C8600026D8DFE802F0020D151D0323EA4688B042
:10C8700087F8B8306A468449516180499161BEE7C2
:10C880000223EA4688B06A4687F8B8307F4BB2E7A1
:10C890000323EA4688B06A4687F8B8307C49EBE75C
:10C8A0000323EA4688B06A4687F8B8307949E3E757
:10C8B0000121794A72481CF034FB002387F8B83014
:10C8C000002507F1CC0207F11C0107F1240011F04B
:10C8D000E9F9B0F5803F1BD00DBB07F1880095E169
:10C8E0006C468AB06A466D4BD661C2E9053540F2A6
:10C8F000013313846A4B4FF41151614842F8103FE1
:10C900001CF011FBA54607F58877BD46BDE8F0870A
:10C91000032D18D10221634A59481CF000FB6C46D4
:10C9200088B06A46C7F8C8505F4B4FF40451536152
:10C93000524B5348C2E90635042342F8103F1CF01D
:10C94000F2FAA546C9E7FB69013544F8103B3B6A9A
:10C9500044F80C3CD7F8CC3044F8083CD7F8D03039
:10C9600044F8043CADE74422002107F1CC0022F05A
:10C97000D7FF0D2387F8CC303B6CC7E93889C7E96E
:10C98000406553B9494A02213D481CF0C8FA0221CA
:10C99000474A3B481CF0C3FAB5E7B96B09B9454AA9
:10C9A000F1E7FA6B786B6E468AB06C46C7E93423C0
:10C9B000C7E9360140F2024925463F49DFF8FCA0AD
:10C9C000DFF8FC80C4E906A361612262A4F8249028
:10C9D00045F8108F2A464FF4345129481CF0A3FA29
:10C9E000D7E93632B546A5463649C4E90723C4E936
:10C9F000051A2A464FF434512148A4F82490C4F86B
:10CA000010801CF090FAB54607F1CC00FFF76AFEE3
:10CA100088B06A462C4B4FF4C8515361174B1848E5
:10CA20009361032342F8103F1CF07DFAB5466AE794
:10CA3000494640460FF0DAF8002808DA0121234A77
:10CA40000F481CF06CFA0A2387F8883045E7012864
:10CA5000F9D16C4688B06A461D4B4FF4C8515361FA
:10CA6000064B07489361032342F8103F1CF05BFA22
:10CA7000A546E8E77CF60020D8280400D13504005C
:10CA800068050400F728040017290400522904004F
:10CA90009C290400E72904002C2A0400672A0400CA
:10CAA00004000001802A0400AE2A0400C92A040000
:10CAB000872B0400FB2A04002B2B0400BB35040049
:10CAC00005000001482B04006B2B0400AA2B040076
:10CAD000C92B04006E4688B06A464FF00308504BDD
:10CAE0004FF4C85153614F4B4F48936142F8108F38
:10CAF0001CF019FAD7E92FA9D7E92854B5464422E2
:10CB0000002107F1CC0022F00BFFD7E911318AB0E8
:10CB10006A46C7E93954C7E940A9136240F20243A3
:10CB200042489384DFF80891424BC2E90691506174
:10CB30004FF4345142F8103F3B481CF0F4F9B7F879
:10CB40004E30B546CC2B54D009D8C82B32D0CA2B86
:10CB50004FD00121384A34481CF0E3F91CE0B3F50A
:10CB6000D77F1BD2B3F5C87FF3D3344AA3F5C8717E
:10CB700089B2CA40D207ECD56C4688B06A46D36108
:10CB800004232F492848C2E905194FF4045142F8FB
:10CB9000103F1CF0C8F9A5460C2317E0B3F5FA7F47
:10CBA00003D8B3F5F97FD4D9E6E7A3F5FB72022ADF
:10CBB000CFD8E1E7214628460FF018F8002808DA18
:10CBC0000121204A18481CF0AAF9092387F8CC3023
:10CBD0001AE00128F9D188B06A461B4B4FF4C851BE
:10CBE000C2E90539104842F8108F1CF09CF9B5468F
:10CBF000EBE70B2287F8CC207A6CC7E93754C7F8EB
:10CC0000D020BA6CC7E9352307F1CC00FFF76AFDE5
:10CC100079E601210D4A04481CF081F95DE600BF68
:10CC2000EF2B0400D1350400680504000D2C04002E
:10CC3000A0350400050000017F2C04003BB2002059
:10CC4000562C0400222C04003D2C04009C2C0400D3
:10CC5000F0B593B03E4E044633783E4D834200AF6C
:10CC600018D16C468AB055F823306A463A493B4899
:10CC700051613B49C2E9061340F201331384394B39
:10CC80004FF4145142F8103F1CF04DF9A5464C37B3
:10CC9000BD46F0BD052B55D8DFE803F0032D2F2D41
:10CCA0004D5101282DD044220021381D22F038FE9C
:10CCB00014233B716FF01503BB60337855F82410D3
:10CCC000052B6C468AB094BF55F82330264B6A4634
:10CCD0002648D161C2E90503254B4FF42151136267
:10CCE000244B1E4842F8103F1CF01DF9381DA54684
:10CCF000FFF7F8FCCBE70228D4E71222C240D207A4
:10CD0000D1D555F8231055F824306D468AB06A46BF
:10CD100019481362194B506153621148184BC2E90C
:10CD200006014FF444510D4842F8103F1CF0FBF847
:10CD3000AD463470ABE700F0FB02012AB2E700F029
:10CD4000FD02FAE701210F4A04481CF0E8F8AAE7BF
:10CD500053120120F8090400B12C040068050400F6
:10CD6000063604000400000151710400F52C040093
:10CD70000002010304000002242D04000103020448
:10CD800005000002E02C040010B592B004464422D5
:10CD9000002101A822F0C4FD05230221074A8DF8D5
:10CDA0000430074823461CF0BCF80120FFF750FF71
:10CDB00001A8FFF797FC12B010BD00BF442D04007E
:10CDC00068050400F0B504460225A1B000AF442276
:10CDD000002107F13C0022F0A3FD87F83C50C4B1CC
:10CDE00023460121344A35481CF09BF83348294634
:10CDF000334A1CF094F8032301203C6487F83C304C
:10CE0000FFF726FF07F13C00FFF76CFC8437BD46B7
:10CE1000F0BD0420FFF71CFF6D4688B06A4603266C
:10CE2000284B4FF4C8515361274B2448936142F873
:10CE3000106F1CF078F82146AD46282207F1140047
:10CE400022F06EFD214BFB6020233B61204BBB6138
:10CE50001623FB611F4B7B622723BB621E4B3B6388
:10CE600012237B6307F10C037B6004233B810FF0EB
:10CE7000FDFC7881381D0FF069FC044660B1034663
:10CE80000121164A0D481CF04CF823460121144A92
:10CE90000A481CF046F8B5E788B06A46114B4FF4D3
:10CEA000C8515361104B0548936142F8106F1CF054
:10CEB0003AF8AD46A6E700BF5B2D04006805040004
:10CEC000872D0400A82D040095350400C72D04000B
:10CED000E82D0400FF2D0400272E04003A2E040044
:10CEE000672E04008E2E040085350400F8B5274B0C
:10CEF00005461B7800AF012B1DD9052B98BF244A8E
:10CF00006C4688B094BF52F82330224B6A462249BF
:10CF10002248C2E905134FF400739383204B4FF46A
:10CF2000E45142F8103F1BF0FEFFA5466FF0770476
:10CF30002046BD46F8BD38B901211A4A17481BF0F2
:10CF4000EEFF6FF01504F3E717480EF011FE0446EC
:10CF500030B103460121154A10481BF0E2FFE7E714
:10CF60006E4688B06A46124B4FF4C8515361114B5C
:10CF70000A489361032342F8103F1BF0D4FF0E4B85
:10CF8000B54601201D60FFF763FED1E75312012073
:10CF9000F809040051710400BC2E04006805040067
:10CFA00003000001F52E0400B5D50100142F040084
:10CFB0003F2F04003A360400ACF6002000232DE990
:10CFC000F041D0B002AFC7E90A333B63002832D04A
:10CFD000036845687B618368BD61FB61C3680021AC
:10CFE0003B62744B4422BB63734B07F19804FB63B1
:10CFF000724B07F154003B64714B79637B64714B56
:10D000007C62BB64704BFB64704B3B6522F088FC18
:10D01000012387F854306E4B1978022911D16D4ADB
:10D020006D481BF07CFF6FF07604204607F59C7777
:10D03000BD46BDE8F08105460346C7E90500F86135
:10D04000CDE7042907D10221644A63481BF067FF3A
:10D050006FF07704E9E7012907D00221604A5E48B2
:10D060001BF05DFF6FF00104DFE7BDB96E468AB0CB
:10D0700002AA5C4B5C4D53615C4BD561936140F2FD
:10D08000013313845A4B4FF4145142F8103F524865
:10D090001BF049FF1E23B5467D61BB613B6ABBB9EE
:10D0A0006E468AB002AA534B534D53614F4BD56124
:10D0B000936140F2013313844D4B4FF4145142F805
:10D0C000103F45481BF02FFF0923B546FD613B6229
:10D0D0000220FFF7BDFD07F15400FFF703FB07F146
:10D0E00034000FF071F9034650B1444A01213A4827
:10D0F0001BF017FF6FF00D040120FFF7A9FD94E767
:10D10000B96978693A1DC7E90101D7E90701C7E99B
:10D11000030101933B693A480093FB6806CA20F07B
:10D12000FEFD031E01DA374AE0E73B46A022214616
:10D13000334810F02DFE031E01DA334AD6E73B6870
:10D140006E468AB07A6ABB6202ACDFF8A0802546E0
:10D15000C4E9068340F202432C49A3842C4B61614D
:10D16000226245F8103F2A464FF434511A481BF00A
:10D17000DAFEB5463B688AB0264A4FF42451C4E92A
:10D180000528A022C4E9072305232A462361124863
:10D190001BF0C9FE07F11400B5460FF063F9044611
:10D1A00000283FF442AF034601211B4A0A481BF006
:10D1B000B8FEA1E7C5CD010089CD010091C70100EE
:10D1C000DB8E0300B9D40100FF8E0300F5C6010019
:10D1D000531201205A2F0400680504008D2F04000B
:10D1E000B02F0400EB2F04001D300400F0350400C4
:10D1F000040000013C3004006F300400793004006A
:10D200007CF600209C300400D6300400003104007D
:10D210000500000114310400523104002DE9F047EB
:10D22000CAB0044602AF002800F022811822002173
:10D2300007F1200022F074FB94F82430E08C87F88A
:10D2400028306369FB62A3693B6308B90FF00EFBEA
:10D2500094F8293094F828205B0002F0010203F0D2
:10D260000203134397F83620B88622F003021343D3
:10D2700087F83630804B93F800A0BAF1040F0BD03A
:10D280007E4802217E4A1BF04AFE6FF07F0007F5C0
:10D290009077BD46BDE8F0872378062B00F08B80A1
:10D2A000072B00F0B180052B40F0D08000252669C7
:10D2B0007C222946C7F8A05007F1A40022F030FBD9
:10D2C000002E76D007F1A0033B608023E94688B0AA
:10D2D0007B6002AA6B4B4FF4045153616A4B674861
:10D2E000C2E9063642F810AF1BF01DFED7E9001266
:10D2F0002B46CD4607F1100020F0DCFC031E07DAB8
:10D30000624A01215D481BF00CFE6FF00D00BEE784
:10D31000E46807F10809D4E90023C9E90023D4E946
:10D320000223C7E90E230093BB6B07F1100099E8B5
:10D33000060010F0FFFBB0F100080EDA43460221B0
:10D34000534A4E481BF0EDFD43460121514A4B48DC
:10D350001BF0E7FD6FF0790099E70135AE4204F16B
:10D360001004D8D107F1100107F1080300934A48CF
:10D37000652307F1380210F0FFFE041E6EDA234623
:10D380000121464A3D481BF0CCFD454B9C42BCD197
:10D390006C4688B002AA434B4FF4C85153613A4BD4
:10D3A00036489361032342F8103F1BF0BCFDA546AD
:10D3B000D0E73146D8E7D4E9073090B907F1A000AB
:10D3C000FFF7B4F938B12D480121374A1BF0A7FD0A
:10D3D0006FF00B005BE707F1A000FBF719FA07F10C
:10D3E000A003C7E9043007F108030193652307F19F
:10D3F00010020093284807F1380306CA10F0B8FF5E
:10D40000031E2BDA294A7CE7D4E9073058B907F123
:10D41000A000FFF78BF90028D5D107F1A000FBF79A
:10D42000F7F907F1A003C7E9043007F108030193F6
:10D43000652307F110020093174807F1380306CA65
:10D4400010F02AFF031E09DA194A5AE70B48012196
:10D45000184A1BF064FD6FF0220018E7BB6807F163
:10D4600020007B6207F138033B620FF0C1F90EE741
:10D470006FF015000BE700BF531201206805040090
:10D48000783104009731040072350400B63104008D
:10D49000E83104001C3204007CF600204332040012
:10D4A00002000180733204008E320400AA320400AC
:10D4B000D73204000533040090B59DB000AF44227C
:10D4C000002107F12C0022F02BFA042307F12C0095
:10D4D00087F82C30FFF706F92C220021384622F07D
:10D4E0001FFA072338463B70FFF798FE034638B112
:10D4F00001210C4A0C481BF014FD7437BD4690BD49
:10D500006C4688B06A46094B4FF4C8515361084BCA
:10D5100005489361032342F8103F1BF004FDA54624
:10D52000EBE700BF1833040068050400463304002D
:10D53000DC35040090B58DB000AF04462C220021EC
:10D54000381D22F0EDF90623BC613B713CB9022184
:10D55000134A14481BF0E3FC3437BD4690BD204607
:10D56000FBF756F9F861381DFFF758FE034628B15E
:10D5700001210D4A0B481BF0D4FCEDE76C4688B046
:10D580006A460A4B4FF4C8515361094B05489361F1
:10D59000032342F8103F1BF0C6FCA546DCE700BFA2
:10D5A00060330400680504007C330400A2330400E7
:10D5B00018360400B0B5044692B000AF44220021F2
:10D5C000381D22F0ADF9D4B12378052B74D8DFE8EB
:10D5D00003F00319326944576D4688B06A46394BE7
:10D5E00039485361394B4FF4C8519361032342F8D2
:10D5F000103F1BF098FCAD466068FFF79BFF483773
:10D60000BD46B0BD6D4688B06A46314B4FF4C85137
:10D6100053612E4B2C489361032342F8103F1BF0BB
:10D6200082FC0E23AD4660683B71FFF783FF381D17
:10D63000FFF758F8E3E76D4688B06A46254B4FF48C
:10D64000C8515361214B20489361032342F8103F96
:10D650001BF069FC0F23AD46E5E76C4688B06A46CF
:10D660001D4B4FF4C8515361184B17489361032366
:10D6700042F8103F1BF057FC1023A5463B71D6E73C
:10D680006C4688B06A46154B4FF4C85153610F4B36
:10D690000D489361032342F8103F1BF044FC112313
:10D6A000A546EBE701210E4A07481BF038FC6068ED
:10D6B000FFF740FF1223E1E701210A4A02481BF06D
:10D6C00030FC9CE7B73304006805040029360400E9
:10D6D000D1330400EA33040002340400233404008C
:10D6E000413404005634040008B50F4B1B78042B5A
:10D6F00007D00E4802210E4A1BF011FC6FF07F008C
:10D7000008BD0520FFF7A4FA0EF0D6FF0028F7D0D9
:10D7100003460121074A05481BF003FC0120FFF7DF
:10D7200097FA6FF00500EBE753120120680504003B
:10D730007831040075340400B0B58EB0044604AFEF
:10D7400000285BD014220021B81822F0E9F8E36821
:10D750002C4DFB6123693D613B620FF087F8D4E9F2
:10D760000023C7E90223284BB8841B78042B09D077
:10D7700026480221264A1BF0D2FB6FF07F00283793
:10D78000BD46B0BD3A1D238902926422CDE9005204
:10D790002048D7E9021210F085FC031E07DA1B4867
:10D7A00001211D4A1BF0BDFB6FF00D00E7E77B6810
:10D7B0006C468AB039697B6104AA184811625061CD
:10D7C00017484FF43451C2E9060340F202439384F0
:10D7D000144B0E4842F8103F1BF0A5FB07F1100058
:10D7E000A5460FF005F80028C9D0034601210748D7
:10D7F0000D4A1BF096FB6FF00500C0E76FF01500B7
:10D80000BDE700BFEF11012053120120680504009D
:10D81000783104007CF60020B1340400E3340400C5
:10D820003B35040005000001013504002DE9F047F7
:10D8300006460C4600AF002936D0D1E90012E94671
:10D840008AB06D46A3684FF0050AA8461F48C5E98F
:10D850000723C5E9050148F810AF002342464FF4FD
:10D8600021511B48FEF7A2FAD4E90312CD466369A1
:10D87000AD461848C5E90723C5E90501C5F810A05C
:10D88000002342464FF421511148FEF78FFACD464E
:10D89000E3690121104A0E481BF0C1F9A369012177
:10D8A0000E4A0B481BF0BBF9012E07D1EFF305839D
:10D8B0000B4A31460648103B1BF0B1F92146304671
:10D8C00014F0F2F9BD46BDE8F08700BF4D36040004
:10D8D000480604007C360400AB360400BA36040067
:10D8E000E836040030BFFFF7FDBF00BF2DE9F0416F
:10D8F00005460B4EDFF82C80324606EB0807CC1BA2
:10D900002046094921F0E5FFA01942460021083CC4
:10D9100022F006F86C6707F10800BDE8F08100BF4F
:10D92000000000000800000090060400074A936809
:10D9300093F90E10002907DB526993421FBF044A76
:10D94000536843F080535360704700BFF40C0120CC
:10D9500000ED00E070B5344C06460D4633483449BE
:10D960001BF0EFFAA36AD9064DD5304831491BF0B8
:10D97000E8FA1120A36A1A0704D52C482E491BF097
:10D98000E0FA1220284CA36A9B0712D52B4927489E
:10D990001BF0D7FA636BA26A110609D50121284A48
:10D9A00022481BF03CF91EB1A36A23F08003A36256
:10D9B00013201D4CA36ADA0704D51C4821491BF02B
:10D9C000C0FA1420A36A9B0604D518481E491BF010
:10D9D000B8FA1520144B9A6AD60602D49A6A9407AC
:10D9E00013D59B6AD90610D5184940F26313184A1B
:10D9F00018481AF002FF18481AF0FFFE40F26311AF
:10DA000013481AF0F1FE1020B4E7074B9A6A920609
:10DA100042BF5A6A22F400525A629A6A42F0FF02E6
:10DA20009A6200232B7070BD00ED00E048060400F0
:10DA3000FB36040011370400443704005737040054
:10DA40006F37040085370400A4370400053804004C
:10DA5000D33704009F1E04004F38040010B5244C37
:10DA6000244925481BF06DFAA36A99013ED5224846
:10DA700022491BF066FA1E20A36ADA0104D51E486B
:10DA80001F491BF05EFA1F20194CA36ADB0204D564
:10DA900019481C491BF055FA0220A36A1C0304D53F
:10DAA000154819491BF04DFA2120114CA36A59035E
:10DAB00004D5114815491BF044FA2220A36A9A03A1
:10DAC00004D50D4812491BF03CFA2320084CA36AE8
:10DAD000DB0304D508480F491BF033FA2420A36A5E
