:10000000E0610020B52200006B690000A122000021
:10001000A1220000A1220000A1220000A1220000D4
:100020000000000000000000000000002924000083
:10003000A122000000000000E9230000A12200002E
:10004000A5250000A5250000A5250000A525000088
:10005000A5250000A5250000A5250000A525000078
:10006000A5250000A5250000A5250000A525000068
:10007000A5250000A5250000A5250000A525000058
:10008000A5250000A5250000A5250000A525000048
:10009000A5250000A5250000A5250000A525000038
:1000A000A5250000A5250000A5250000A525000028
:1000B000A5250000A5250000A5250000A525000018
:1000C000A5250000A5250000A5250000A525000008
:1000D000A5250000A5250000A5250000A5250000F8
:1000E000A5250000A5250000A5250000A5250000E8
:1000F000A5250000A5250000A5250000A5250000D8
:10010000A5250000A5250000A5250000A5250000C7
:10011000A5250000A5250000A5250000A5250000B7
:10012000A5250000A5250000A5250000A5250000A7
:10013000A5250000A5250000A5250000A525000097
:04014000A5250000F1
:1001440053B94AB9002908BF00281CBF4FF0FF313A
:100154004FF0FF3000F00CB8ADF1080C6DE904CE9F
:1001640000F008F8DDF804E0DDE9022304B070478C
:10017400704700BF2DE9F04786468C460846089E26
:10018400154674461946002B40F0C1808542B2FAE8
:1001940082F245D94AB1C2F1200300FA02FC95402B
:1001A40094402EFA03F343EA0C0C4FEA154EA8B21E
:1001B400230CBCFBFEF80EFB18CC08FB00F943EA49
:1001C4000C43994528D9EB1808F1FF3704D2994517
:1001D40002D9A8F102072B44A3EB0903A4B2B3FB91
:1001E400FEFC0EFB1C330CFB00F044EA0344A0426B
:1001F40014D92C190CF1FF3304D2A04202D9ACF16A
:1002040002032C44241A43EA07401EB1D4400023BD
:1002140034607360BDE8F0874746DDE76346F1E785
:1002240092BB431B01214FEA154EAFB2200CB3FB26
:10023400FEFC0EFB1C330CFB07F840EA0343984515
:1002440061D9EB180CF1FF3004D2984502D9ACF116
:1002540002002B44A3EB0803A4B2B3FBFEFC0EFB89
:100264001C330CFB07F744EA0344A7424DD92C196D
:100274000CF1FF3304D2A74202D9ACF102032C449F
:10028400E41B43EA0040C0E7C2F1200395409440D8
:1002940020FA03F12EFA03F34FEA154E9040AFB261
:1002A4000343B1FBFEFC0EFB1C10190C0CFB07F8FE
:1002B40041EA0041884522D969180CF1FF3004D283
:1002C400884502D9ACF102002944A1EB08019BB294
:1002D400B1FBFEFC0EFB1C110CFB07F743EA0143C8
:1002E4009F420ED9EB180CF1FF3104D29F4202D980
:1002F400ACF102012B44DB1B41EA004193E7604669
:10030400E3E76146F7E76046A4E76346B8E783425C
:1003140006D916B9002108467CE7C6E900E0F9E7EA
:10032400B3FA83F78FB9834201D3724508D8BEEB81
:10033400020460EB030301209C461EB9002169E717
:100344003846FAE7C6E9004CF8E7C7F1200CBB4091
:100354000EFA07F522FA0CF42EFA0CF1BA401C43FB
:1003640020FA0CF3B8404FEA144901431FFA84FE03
:10037400B3FBF9F809FB18300B0C08FB0EFA43EA3F
:1003840000439A4540D9E31808F1FF3004D29A4556
:1003940002D9A8F102002344A3EB0A0389B2B3FBF8
:1003A400F9F809FB183308FB0EFE41EA03418E45B8
:1003B4002CD9611808F1FF3304D28E4502D9A8F173
:1003C4000203214443EA0040A1EB0E01A0FB029882
:1003D4004145CE46434602D306D14D4504D20138A9
:1003E400B9EB020E68EB0403002EA7D0B5EB0E02A6
:1003F40061EB030101FA0CFC22FA07F3F9404CEA21
:100404000303C6E9003199E74046C5E74346D9E707
:10041400F0B5344B344A4921C3F800263348C3F8B5
:10042400042685B0C3F80826C3F80C26C3F81026A2
:10043400C3F81426C3F81826C3F81C2606F008FAD5
:1004440000F084F800F016FB054601A800F0BCFD9E
:100454000446284600F01EFB254B1B68A34205D02A
:100464004521244806F0F4F905F06DFF039A49216B
:10047400214806F0EDF94921204806F0E9F94FF446
:100484004041002003F01CF8044620B145211C48DB
:1004940006F0DEF9FEE769469DF8080000F034F83E
:1004A400009B039D1D44019B1E8902F0F1FFAF19BF
:1004B40001F0BAF801F08AF801F0A4F884F30B888B
:1004C40084F30A88AB5983F3088884F31488BFF350
:1004D4006F8FBFF36F8F7B6898474521094806F0FB
:1004E400B7F9FEE7008001503546526EC68B000016
:1004F40008000020DF8B0000028C0000318C00001B
:10050400568C0000898C0000024608B538B10548B5
:100514000023452106F09CF96FF0150008BD086022
:10052400FCE700BFAC8C000021B1012906D06FF0BC
:1005340015007047044B53F830007047024B03EB2F
:10054400C0035868704700BFD88700004FF4C051FB
:10055400014803F011BD00BF981700202DE9F04FAA
:10056400DFF81492F9B038A8DDE9848A17461D46ED
:10057400869CD9F8006007F05BFC002138A803F0E2
:1005840031FEB8F1000F07D0BAF1000F04DD524676
:10059400414638A807F055FC4FF000083B897A899A
:1005A400D7F80CB013449B44C34562D80DA938A8AE
:1005B40007F086FC38A807F03FFC24B1202220462F
:1005C4000DA906F019FA00232A46009339464FF67E
:1005D400FF7307A805F0E2FD8046002859D128469C
:1005E4000C9C00F031FA844253D84FF0FF34DFF80A
:1005F4008CA10DF1160305AA06A907A805F01CFE97
:10060400002846DB40F0AF80069907A805F060FE9D
:1006140050B94FF6FF71BDF81600594A32F8023B43
:100624008B4236D09842F9D1BDF81670102F3AD0CB
:10063400202F74D0012FDCD1BDF81430202B28D802
:100644002846069938AA06F011F9044608BB9DF815
:1006540014B0BBF1200F09D8DAF80030494F0393E6
:10066400039B1DA89C423DDB07F0E6FB4FF0FF34E3
:10067400BFE7839BABEB080A9A4528BF9A464146DD
:1006840053462846829A06F0F1F828B138A807F0B4
:10069400D3FBD9F8006069E05246829938A807F084
:1006A400D0FBD04480E7BDF81470202FF1D13B4635
:1006B4002846069938AA06F0D9F80028E9D100F0AE
:1006C400D9F93A46804638A90DA800F06BF90746D7
:1006D400404600F0DFF92C4B1B68BB42D9D14FF0E8
:1006E400010886E707F0A4FB00211DA803F07AFDAA
:1006F4007A681DA8126857F8081B07F0A2FB15A911
:100704001DA807F0DDFB5A4638A915A806F064F9C0
:1007140018B91DA807F090FB6BE70134A0E7631C30
:100724003FF467AFDAF80030A3429FDDBDF8143020
:10073400B3F5807FADD12846069938AA06F096F81D
:100744000028A6D100F096F9E4B283463946BDF8F4
:10075400143038AA00940DA800F018F8064658463C
:1007640000F098F982E7B8F1000F92D000F08AF90E
:10077400304679B0BDE8F08F04000020E087000027
:10078400988B0000E4870000080000202DE9F04F5A
:10079400DFF804B2ADF5417D80462AA81E469DF8D7
:1007A40028738A469146DBF8005007F0FAFA0922CA
:1007B40001212AA803F092FC784B80AA53F8374011
:1007C40003EBC7035B6805941B6805A81C4421461A
:1007D400302306F0D1FB002840F0D380059B809A9B
:1007E40013449C4240F0CD8021462CAA05A806F073
:1007F400D7FB002840F0C5802EAF3A46214605A815
:1008040006F0CEFB0390002840F0BB802CA806F035
:1008140075FF059A2B90944240F0B380039B019797
:100824001A4600932CA92AA807F078FA002840F069
:10083400A8802AA803F068FC002840F0A2802CA815
:1008440006F05CFF2B902AA807F0B5FA864240F028
:10085400988000F00FF9B6F5807F0746DBF800506A
:1008640040F08A80BAF1200F40F08680494680AA81
:100874002AA803F06FFC044600287DD19DF8FF32BE
:10088400BC2B79D1DF2606900DF5907A0FA807F0DE
:10089400CFFA00210FA803F0A5FC20220DF2DF21DE
:1008A4000FA807F0CEFA042206A90FA807F0C9FA88
:1008B40007A90FA807F004FB202EB146A8BF4FF0EC
:1008C40020099DF81B30504601334A4607A9A6EB80
:1008D40009068DF81B3006F08FF8002ECA44D5DCCB
:1008E4000FA807F0A9FA48AA1046002180AB0678A1
:1008F40013F801CB013186EA0C06DF2900F8016BFD
:10090400F5D19DF8203103F07F038DF8203112F8E2
:10091400016B8EBB0134BE2CF9D19DF8DE31012B65
:100924002AD10FA807F084FA31460FA803F05AFC25
:1009340008221B490FA807F084FA414620220FA879
:1009440007F07FFA20220DF2DF110FA807F079FAE1
:1009540007A90FA807F0B4FA0FA807F06DFA00F082
:1009640089F8202204460DF2DF2107A800F01AF8C6
:100974000546204600F08EF800F084F8384600F072
:1009840089F82AA807F019FA00F07CF828460DF532
:10099400417DBDE8F08F00BF04000020E487000023
:1009A400D28C000070B5094B04461D6800239342A5
:1009B40005D1074B1D6800F065F8284670BDE65C5C
:1009C400C85C8642F7D10133F1E700BF0400002080
:1009D40008000020094A40000B7852F820108B428E
:1009E40009D0013052F82000834214BF4FF0FF3089
:1009F4004FF4C07070474FF4C0707047EC8700002C
:100A04001FB50F4B0C4613F8300001F0A5F950B98F
:100A14002068102381686A46103905F027FF28B141
:100A2400206805F022FF4FF0FF3006E010226846F0
:100A3400044905F0D1FF0028F2D104B010BD00BF75
:100A4400EC870000B68B000013B5044605F053FC98
:100A54006A460146204605F088FB30B1044845212A
:100A640005F0F6FE002002B010BD0098FBE700BFC1
:100A7400DA8C0000024B1868421C1A60704700BFF1
:100A840048030020024A1368013B1360704700BF0B
:100A940048030020034B1B68834201D005F053BC7C
:100AA400704700BF480300202DE9F043434F89B04D
:100AB400064600200D463C68FFF736FD06A9C0B285
:100AC40001F04AF928B1FFF7DDFF204609B0BDE87F
:100AD400F0832946FFF728FD2C2407A9C0B204FBA4
:100AE400056401F039F990B12C236B43F2181169B4
:100AF400DDF818C0C8061AD51DB13046069905F0B0
:100B0400F7FC2F4B1C68069805F0AFFEDBE707984F
:100B140005F0F5FE8046079805F0A7FE631EE21C6B
:100B240013F8011F4145DFD19342F9D1E4E7F058AE
:100B3400244B98423ED1D06813891B183AD252896B
:100B4400D21837D2DCF808309A4233D240F60C631C
:100B540011EA03062ED1FFF78DFFDDF81890074642
:100B6400FFF788FF4FF480730193174B22468046AA
:100B74003146009330464B46CDE903660296FFF7B3
:100B8400EDFC04464046FFF785FFFFF77BFF384640
:100B9400FFF780FF0D4B1B68A342B4D065B10698E4
:100BA4000021826805F08CFE094A4521094805F0B8
:100BB4004FFEA6E73C68EDE7074AF6E7040000208D
:100BC400000000203DB8F396982F00200800002074
:100BD4001D8D0000278D0000158D00007FB50D468A
:100BE400002104462846CDE9021105F040FC28B353
:100BF4002368194EB34203D1204603AA05F0CCFB67
:100C0400E36AB34204D10121204602AA05F0C4FBE1
:100C1400DDE90232934288BF0393039BAB60039ADE
:100C24002946204600F0DAFB0C4B1A68002A03DD43
:100C340057210B4805F00CFE04B070BD01A9FFF765
:100C4400DFFE019805F1080105F060FBAB6801982F
:100C5400039305F00AFEE2E73DB8F396AC0F0020DB
:100C64004F8D00002DE9F84F884691469A4600269C
:100C7400DFF868B01A4C1B4D0B9B9E4201D3002039
:100C84000FE00B9B40469F1BB7F5806F28BF4FF4C6
:100C94008067124A3B4606EB0A0105F0E7FD10B1F6
:100CA4000120BDE8F88F0A993B465A464846711818
:100CB40005F0F1FD0028F3D1C4F800563E44C4F811
:100CC4000456C4F80856C4F80C56C4F81056C4F8B0
:100CD4001456C4F81856C4F81C56CDE74C0300202B
:100CE400008001503546526E2DE9F0410E46002138
:100CF400AC4B0446436203F5806388B00365084641
:100D0400FFF712FC04F120010546C0B201F024F8FB
:100D140048B100232A46452101900093A24805F0DA
:100D240097FD05F010FB01210020FFF7FDFB04F106
:100D34004C010546C0B201F00FF850B101232A4618
:100D44004521019000939848002305F081FD05F0AA
:100D5400FAFA204605F061FB054668B900222046F0
:100D6400114605F003FB054600B3002257218F48C6
:100D740005F06EFD01239EE0802257218C4805F08A
:100D840067FD01239D4284F85830E7D194F8583028
:100D9400042B8DF8173000F29180012B00F295801E
:100DA40000F0A880FF2384F85830A3E0204600F028
:100DB40027FA0028DED004A805F050FB014620469F
:100DC40005F0EBFB18B12A4657217A48D0E704A86E
:100DD40005F04DFB80F0010104AA2046C9B205F0DC
:100DE400C5FA02460028C0D104A805F040FB054618
:100DF40060BB204604A9FFF7F1FE9DF8173084F884
:100E04005830033B012B06D8284600F00DF910B1E9
:100E1400FF2384F858309DF81730023B022B0BD87F
:100E2400002000F0EBF838B1FF2384F85830452156
:100E3400614805F00DFDFEE794F85830FF2BF6D01D
:100E44000021204604AA05F091FA93E79DF8177053
:100E5400012F1ED1104602F0C7FB831E022B05464C
:100E640014D8FFF707FE394680462046FFF71CFEDC
:100E740007464046FFF70EFE504B1B689F4205D0C5
:100E84004F4B1D68AF4214BF0525012584F8585007
:100E94007CE7FFF7EFFD012107462046FFF704FE3C
:100EA40005463846FFF7F6FD444B1B689D4214BFC8
:100EB40005239DF8173084F8583067E7052B7FF435
:100EC40071AF002000F0B0F811E0204604A9FFF74C
:100ED40085FE94F85830DA1E012A34D8002000F038
:100EE400A3F800287FF45EAF002000F087F8002804
:100EF4007FF458AF94F85830FF2B05D145212E4884
:100F040005F0A6FC05F01FFA002294F858302D4F86
:100F1400012B03921AD01146204605F027FAA8B1F6
:100F24003D68102200210DEB020005F070FDE06C1D
:100F340005F09BFC206A05F098FCFFF7A3FD28460A
:100F440008B0BDE8F081022BD4D1CDE7FFF792FDC4
:100F5400002180462046FFF7A7FD05464046FFF7DF
:100F640099FDDFF85880D8F800309D42D8D13B680D
:100F74009D42D5D0124B1B689D42D1D0039B0133B7
:100F84000393039B012B01D005F0DDF9206A05F0E2
:100F9400EAF83071236A5B683460D8F80050B360B3
:100FA400BFE700BF4C0700207E8D00000D8E0000BF
:100FB400CB8D0000398E0000638E000008000020F5
:100FC400000000200400002070B50B4E044660228F
:100FD4000021304605F01BFDFFF74CFD2146054678
:100FE4003046FFF781FE04462846FFF753FDFFF71E
:100FF40049FD204670BD00BF4C0F002013B5094BBE
:1010040001A913F8300000F0A7FE48B9019805F0D3
:1010140077FF0446019805F028FC204602B010BD75
:101024000124FAE7F48700001FB50F4B01A913F858
:10103400300000F091FEA8B9019802A902F07EFAEE
:10104400044668B99DF80B30032B03D1019805F0D1
:1010540025FF0446019805F008FC204604B010BDA5
:101064000124F7E70124F8E7F48700002DE9F341B0
:1010740006460C4617461D460BB9002628E01846BE
:1010840005F0F5F90028F8D16946FFF7B9FC009896
:1010940038B90124009805F0E8FB204602B0BDE809
:1010A400F08101A905F032F90028F2D1009805F089
:1010B400DCFB3046019905F0BDFA736A5E686B7912
:1010C400012B21D1002CD8D12B68834298BF002654
:1010D40021460020FFF728FA6946C0B200F03CFE22
:1010E4000028D6D120233A463146009805F0BEFBAD
:1010F40004460028CDD1002DCCD03C680D4BE41A19
:1011040018BF4FF0FF34C5E7022BB6D12B68012B73
:1011140005D98342B1D8B4FA84F46409ADE7ACD1FB
:10112400002CD5D0012CA8D12C79023C18BF012465
:10113400A3E700BF3DB8F3962DE9F04F07460C46F0
:1011440085B0014600201646FFF744FC051E50DB1F
:101154003846E46D05F0CFF85FFA84F94FF0000AE1
:101164004FF0010B4FF0FF346B1E09FB03089DB9D0
:10117400BAF1010F03DD4521204805F069FB631C2A
:1011840006D07F2C2ADC40F2011301343460B38092
:10119400284605B0BDE8F08F6B1E0093414601233D
:1011A40038460DF10F0205F061FB031E019322DBAB
:1011B400012238460DF10F0105F00BFE019B40B1F1
:1011C4005B4501D00AF1010A9B46009DA8EB090882
:1011D400CDE7B4F1FF3F08BF2C46F5E70223803C7E
:1011E4007371631004F0010401330134336034710A
:1011F400CEE70725CCE70125CAE700BF6F8E0000C4
:1012040070B5866A456D044605F003FAAE420AD00D
:101214006B1CB34207D0834205D05721134805F015
:1012240017FB002070BD802E1CD957211048F6E70B
:10123400626A216D02EBC30201EBC3015268496883
:10124400914202D057210B48E9E701339D42EFD187
:10125400AE4205D9636A03EBC5035B689342F1D1DF
:101264000120DFE700231A46F0E700BF928E00005A
:10127400CA8E0000F98E000000B589B0022004A9CE
:1012840005F019FE9DF81020012A41D0254B26496E
:10129400032A08BF0B469DF81320492102929DF8AA
:1012A4001220224801929DF811200092204A05F054
:1012B400CFFA082006A905F0FEFD9DF81820012AA2
:1012C40028D0184B1849032A08BF0B469DF81B2049
:1012D400492102929DF81A20144801929DF8192080
:1012E4000092144A05F0B4FA9DF81030012B13D182
:1012F4009DF81230032B0FD19DF81830012B0BD021
:101304000D48492105F0A4FA022009B05DF804FB58
:101314000A4BC0E7094BD9E70948492105F098FA77
:101324000020F2E7258F00002E8F0000428F00007E
:10133400348F0000838F0000938F0000298F0000FA
:10134400B28F000070B54B6814461E4A03F0FF23A9
:10135400934206460D4686B02FD10B68012B2CD143
:10136400204604A902F0EAF89DF81020012A26D0AC
:10137400154B1649032A08BF0B469DF81320492133
:1013840002929DF81220124801929DF811200092B9
:10139400104A05F05DFA9DF81030032B0DD121465B
:1013A400304605F0A5F8204605F078FD2046A968EA
:1013B40004F0BAFF204602F0A1F806B070BD064B57
:1013C400DBE700BF00010004258F00002E8F000022
:1013D400428F0000838F0000298F00002DE9F04F19
:1013E4001646054689B00C467448492105F030FA82
:1013F4003146284605F01EF96B6A824620465E682F
:1014040005F035F8E8B1E86D04F070FF0023AF6A29
:10141400013F3344834201D2013FFAE7BA4510D376
:101424005721674805F014FA07FB06F357210AFB16
:101434000662644805F00CFA0123E37109B0BDE8C3
:10144400F08F06A9022000F087FC07A9082000F00D
:1014540083FC21462846079AFFF774FF6379012B22
:101464004BD15746DFF860B141E02268C2F1010375
:1014740053449F423AD86B6A012A196853F83700DB
:1014840003EBC70353F8083CA0EB0109A3EB0103EA
:10149400049311D1079B0393E368022B08D04146C0
:1014A400284605F025F822464146284605F056F818
:1014B4002846039905F01CF832464946404605F093
:1014C40015F8049B424641462846CDE90096FFF7AD
:1014D400C9FB2146284604F0D7FF23680133236063
:1014E40020B1DBF800300133CBF80030013FDDF8E8
:1014F4001880002FB9D101232360022301276371CF
:10150400BA45DDF8189006D2484605F0AEF90798BA
:1015140005F0ABF992E723689F424DD36A6AFB005A
:1015240052F83710083B04911168DDF81CB00391A0
:10153400D1582A6DD0581368A0EB03082379012BE6
:1015440038D1039B3246C91A4846059104F0CEFFB0
:10155400059943464A460091284659460196FFF7A5
:1015640081FB2146284604F08FFF0223237118B122
:10157400154A13680133136032464146584604F055
:10158400B5FFDDE9032349469B1A28465A46CDE9AF
:101594000086FFF767FB2146284604F075FF2368A1
:1015A400013323600123237130B1074A13680133E7
:1015B400136001E0022BDFD00137A1E7C98F0000DF
:1015C400F28F000021900000AC0F0020BFF36F8F5A
:1015D40072B600234FF0FF30094A03F120010133B2
:1015E400102B42F82100F8D100234FF0FF30044AB9
:1015F40003F160010133102B42F82100F8D1704748
:1016040000E100E0002318460649D1F89020C2F317
:101614000722934200DB7047C1F89830C1F8A0005C
:101624000133F6E700ED00E02DE9F8434FF0FF3514
:1016340001274FF00008204BDFF880905F60C3F86B
:101644004853C3F8085303F580535F60C3F8485305
:10165400C3F8085359F8044B002644F30730C4F880
:10166400085300F0FDFE80226760C4F84C61D4F892
:101674004C31C4F81061D4F81031C4F844613146D7
:10168400D4F84431A018C4F8006505F0C0F98022EC
:10169400314604F5C07005F0BAF9B8F1000F08D06E
:1016A400074BC3F808554FF05023C3F80853BDE85F
:1016B400F8834FF00108CDE7004001500088000096
:1016C40000700150014B1B68184700BF0C0000203C
:1016D400014B1860704700BF0C00002007B50B4693
:1016E400002102460091034800F006F803B05DF8BB
:1016F40004FB00BFC91600002DE9F04F82464FF0ED
:1017040000098DB01D46531E01910393039B587825
:101714005C1C252819D100204FF0FF381E46444692
:1017240003460236029031780396392955D81F2989
:1017340014D8002900F0EF8101992520D0470199A0
:101744003078D04709F10209E0E7002800F0E3818E
:101754000199D04709F101090394D7E7A1F12002C7
:10176400192AE9D801A757F822F000BFD9170000B9
:101774003D1700003D170000D91700003D17000079
:10178400591800003D1700003D1700003D170000E8
:101794003D170000A5180000D91700003D170000F0
:1017A400B9180000651800003D1700007318000008
:1017B4009318000093180000931800009318000079
:1017C4009318000093180000931800009318000069
:1017D4009318000008460136A5E7582900F0EB806D
:1017E400A1F16302D7B2172FA6D8172AA4D801A74C
:1017F40057F822F0611A0000DF1800003D170000BE
:101804003D1700003D170000BF180000DF1800005E
:101814003D1700003D170000BF1800003D170000F1
:101824003D1700003D170000951900003D1700000A
:101834003D170000351A00003D170000DF180000B6
:101844003D1700003D170000951900003D170000EA
:10185400BF18000025200199D04709F1010955E777
:10186400029A4FF0000802F0FE020292B3E7002C45
:101874000DDAB8F1000F0DDA029A002A00F0438164
:101884000A2224EAE47402FB0414303CA3E7B8F10E
:10189400000FF5DB0A2202FB0812A2F130089AE7D6
:1018A400B8F1000F55F8042B80F22F81002A80F242
:1018B4002E815442022202928DE7682903D1682BBB
:1018C40006D1482387E76C2902D16C2B00F02181D3
:1018D400002B7FF431AF0B467DE77A2B06D17529B7
:1018E40055F8046B14D14FF0000B0CE06C2BF6D0C0
:1018F4004C2BF4D1073525F00703752903F10805AE
:10190400D3E9006B06D120283BD1854F013C09E087
:101914004FEAE67BBBF1000FF5DA7642814F6BEBC1
:101924004B0B013C0DF12D0305930023049330462A
:1019340059460A220023FEF703FC059BB4463032C5
:1019440003F8012D5A460593049BBCF10A0F8B46FC
:1019540072F1000203F1FF3106460491E7D2C3F1AC
:10196400010B30330DEB0306B8F1000FA6F10406AA
:101974006DDA029BD9077DD4A8EB0B03A4EB0B040F
:1019840013E02B280ABF684F684F04F1FF34C9E7FE
:1019940070290FD155F8042B0023FAB96FF0040312
:1019A4004FF0050B614F624E053C029A920770D4CA
:1019B400A04666E078216C2B03D1002355F8042B54
:1019C40008E04C2BF9D1073525F007031D465B6869
:1019D40055F8082B232825D1880621D5554F023CDC
:1019E400002601F06001A1F1390B0DF12D0E02F07A
:1019F4000F01092988BF594430310EF8011D102AFE
:101A04004FEA121141EA03714FEA131C73F1000308
:101A140006F1FF3008D2C6F1010B06F13003A1E74D
:101A2400454FDCE7414FDBE706460A466346DEE7FF
:101A340055F8046B304604F0C8FFB8F1000F834634
:101A440002DB4045A8BFC3464FF00008374FA8EB60
:101A54000B03002B92DDA4EB0804A6E755F8043B26
:101A64004FF0010B8DF81830304F4FF0FF33013C2D
:101A740006AE9AE7A046EAE7029320200199D047F0
:101A8400029BB8F10108F7D524EAE472013C9144C1
:101A9400A41AB84606E0049302920199D047029A28
:101AA400049B9046424612F8010B0028F3D11A46D3
:101AB400013A15D5002BACBFC7EB03077F425B4649
:101AC400013B15D5BBF1000FA8BF5F4426464F4428
:101AD400013E14D5002CA8BF3F1907EB080915E6F1
:101AE4000493029230200199D047049B029ADFE7C5
:101AF4000293019916F8010BD047029BE0E7019984
:101B04002020D047E4E70122D5E6904663E6144658
:101B140061E64C235FE648460DB0BDE8F08F00BF98
:101B24006291000060910000649100006E8E0000DC
:101B34006C91000066910000699100002DE9F04766
:101B4400058B04462807904611D4022905F00705A1
:101B540040F0CC80204604F0A3FD78B10138218BFD
:101B6400042811D8DFE800F0C2106D859500012922
:101B74000CBF45F0100545F02005258388F3118836
:101B8400BFF36F8FBDE8F08701F0070AAA4500F0A4
:101B9400A5800027B9463E46A368002B00F0BC8010
:101BA40041F00801218388F31188BFF36F8FA16886
:101BB400002900F0BA800D68002900F0B680334691
:101BC40052462046D1F80480C047002D76D02B68B9
:101BD40029461D46F0E701F007035A1F012A1BD8C6
:101BE400002221F00701062B276889B2C4E90022EC
:101BF40009D13B4603E0628B013262831B68002BF0
:101C0400F9D141F002012046218304F049FD002866
:101C14007AD041F0200176E0042B0AD121F00701AB
:101C240089B22046218304F03BFD10B141F020012C
:101C34002183218B01F0070AAA454FD00027B9461A
:101C4400AAE7236921F0070141F00601062DD3F824
:101C5400009021832DD1B9F1000F3FD041F008014C
:101C6400218388F31188BFF36F8F20463949C84711
:101C740029E021F00701236941F0040189B2042D10
:101C8400D3F804902183E6D000274FF0040A3E469F
:101C940082E721F00701236941F0050189B2052D8E
:101CA400D3F808902183D6D000274FF0050A3E468A
:101CB40072E700274FF0060A3E466DE72B4687E79A
:101CC400B9F1000FD1D1EFF31188202383F31288E7
:101CD400BFF36F8F238B23F008032383258BEA063E
:101CE4002ED525F01003238305F007056669218BA3
:101CF400002EBFF670AF00232768C4E9003321F03B
:101D0400070141F001012183218B4FF0000901F00B
:101D1400070AAA457FF440AF002F9CD041F0080188
:101D2400218388F31188BFF36F8F002FC8D03D68DB
:101D3400394633465246204604F0DEFC2F46F4E78B
:101D4400AB067FF51BAF25F02003238305F00705C1
:101D540000E700BF2967000070B5114B0D461C68F1
:101D6400DCB1104B196800238B4202DB6FF00100D9
:101D740070BD224612F8106B864202D0144601331D
:101D8400F2E7E06810B96FF01200F1E706F02BFA01
:101D94000028F8D000202C60EAE76FF00C00E7E799
:101DA400100000200888000070B588B005460C4675
:101DB400C0B269461646FFF7CFFF00281BDB009828
:101DC400C8B143682268029383680195CDE903365C
:101DD4000023CDE906230593C56804F046FD6DB1E3
:101DE4002846084901AA04F0F2FE079808B9059BA1
:101DF400236008B070BD6FF01500FAE76FF01200B1
:101E0400F7E700BF1169000008B5054804F031FC8C
:101E1400044804F02EFCBDE80840034804F029BC43
:101E240072910000AA910000DD910000014803F0C6
:101E3400EFBF00BFDC88000038B5044618B90F4B6B
:101E44000F485B6898476168B1F5683F10D0B1F5F9
:101E5400680F0DD00B4DA9420AD011F468612068B7
:101E640007D00146084806F019FA0023236065608C
:101E740038BD142204F0CBFDF9E700BFCC000020EC
:101E84000B9200002C5F5CA9B014002008B500B3CD
:101E94004368B3F5683F0CD101220368D3E8EF1F10
:101EA400002903D1C3E8E02F0028F7D10DD1002089
:101EB40008BD094A93420AD000684FF0FF324FF040
:101EC400FF3303F0A7F90028F1D00448F0E70448F1
:101ED400EEE76FF4E040EBE72C5F5CA9E98FFFFFCE
:101EE400EA8FFFFF08B5B8B14368B3F5683F0CD17A
:101EF40000220368D3E8EF1F012903D1C3E8E02FD0
:101F04000028F7D10BD1002008BD074A934208D01E
:101F1400006803F0F7F9F6E76FF4E040F4E70348EC
:101F2400F2E70348F0E700BF2C5F5CA9E98FFFFFED
:101F3400EA8FFFFF10B5044618B91D4B1D485B68B6
:101F440098476368B3F5683F2FD0B3F5680F2CD07A
:101F5400194A934219D1236803BB4FF0FF324FF063
:101F6400FF332146154803F027F908B923681BB944
:101F74000F4B13485B68984714220021206804F033
:101F840046FD4FF46863636008E0B3F5683F0DD81D
:101F94003A2B03D040F6BA629342DED1206806F0B1
:101FA400B5F9636843F03A03636010BD054AF3E78B
:101FB400CC0000200B9200002C5F5CA9B014002020
:101FC400319200003A00003A08B506494023142231
:101FD400054806F055F9BDE808400449044803F0F3
:101FE40089BF00BFB00F0020B0140020E4880000B7
:101FF400F888000030BFFFF7FDBF00BF074A9368B1
:1020040093F90E10002907DB526993421FBF044A5B
:10201400536843F080535360704700BF901500200D
:1020240000ED00E0154B9A6A12F0007F9A6A14BF23
:102034001E201D2012F0807F9A6A18BF1F2012F400
:10204400801F9A6A18BF022012F4002F9A6A18BFE0
:10205400212012F4802F9A6A18BF222012F4003F24
:102064009A6A18BF232012F4803F9A6A18BF24206A
:102074006FEA02426FEA12429A62704700ED00E092
:1020840010B5194B0246986A9C6A10F4805F14BF1D
:102094001720162014F4006F9C6A18BF1820A4059A
:1020A40009D5986B986A000404D51AB19A6A22F487
:1020B40000429A6219200C4B9A6A12F4806F9A6A51
:1020C40018BF1A20D2050CD49B6A13F4005F18BF02
:1020D4001C20054A936A43F47F43936200230B70E8
:1020E40010BD1B20F5E700BF00ED00E010B51C4B50
:1020F4000246986A9C6A10F0100F14BF1120102039
:1021040014F0080F9C6A18BF1220A40709D5586B55
:10211400986A000604D51AB19A6A22F080029A627B
:1021240013200F4B9A6A12F0010F9A6A18BF1420F9
:1021340012F0200F9A6A18BF1520D40658BF9B6A64
:10214400074B9A6A920642BF5A6A22F400525A62B4
:102154009A6A42F0FF029A6200230B7010BD00BF1E
:1021640000ED00E070B5444B06465B6800258AB07C
:10217400C3F3080385F31188BFF36F8F02F07F4028
:10218400B0F17F4F11D102F00C0008280DD01007D8
:102194004CBF0E4601250022033B8DF80720032B7C
:1021A40005D8DFE803F01E5C60592E46F3E70024EF
:1021B4009DF807309BB92022314602A804F01CFC8C
:1021C400099B002D53D0C3F3080222B96FEA5323AD
:1021D4006FEA43230993204602A904F0BAFB0AB02C
:1021E40070BD254BDA6A9107E1D4DA6A002ADEDB96
:1021F400DA6A5200DBD55A69B16942F480725A61D5
:10220400BFF34F8FBFF36F8F5A6931F8021C22F46A
:1022140080725A61BFF34F8FBFF36F8F4DF6027216
:10222400914209D09A6AD2B242B101200DF107015C
:10223400FFF75CFF0446BBE73468B9E79A6A12F417
:102244007F4F05D001200DF10701FFF719FFF1E7DA
:102254009B6AB3F5803FAAD3FFF7E4FEEAE70020C8
:102264000DF10701E4E700200DF10701EDE723F488
:10227400FF7323F00103ADE700ED00E0064B5A695C
:1022840042F010025A615A6942F480625A615A69F2
:1022940022F008025A61704700ED00E0EFF3088075
:1022A400EFF3098101B57246FFF75CFF01BD00BF82
:1022B400002080F31488BFF36F8F002080F30A8816
:1022C40080F30B8802F0CAF800200E490860BFF3BF
:1022D4004F8F0D4880F3088800F01AF8202080F30F
:1022E40011880A484FF40061401880F30988EFF31D
:1022F40014800221084380F31488BFF36F8F00F029
:10230400E7F8000094ED00E0E0610020A030002038
:1023140072B6002383F313884FF0FF300C4A03F1A5
:1023240020010133102B42F82100F8D100234FF093
:10233400FF30074A03F160010133102B42F82100FA
:10234400F8D162B6BFF34F8FBFF36F8F704700BFF2
:1023540000E100E0084B9B6883420BD1EFF3058357
:1023640043B1064B5A6842F080525A605A6A22F4CA
:1023740000425A6206F088B89015002000ED00E093
:102384006FF00A01084A93689967084958674B68CF
:1023940043F080534B60002383F31188BFF36F8FA6
:1023A4009368986F704700BF9015002000ED00E01F
:1023B400EFF31183202383F31288BFF36F8F4FF061
:1023C4000061064A53699360054A516000215A6FBF
:1023D400596782F31188BFF36F8F704790150020FF
:1023E40000ED00E00E498A684FF030001044EFF32E
:1023F400098C80E8F01F74467046FFF7D9FFA646A3
:1024040007498A6802F1300090E8F01F8CF30988CC
:1024140002F1000004B504F0B1FABDE804407047CD
:10242400901500201EF0040F0CBFEFF30880EFF3AB
:102434000980816911F8021C0229FFD001B504F05A
:102444008EFA01BD40B2002807DB01234109034A8B
:1024540000F01F00834042F82130704700E100E0A3
:1024640040B200280CDB01220649430900F01F009A
:102474008240203341F82320BFF34F8FBFF36F8F87
:10248400704700BF00E100E0054B420953F82220E9
:10249400012300F01F0003FA00F01040704700BF52
:1024A40000E100E040B2002801F10101ACBF00F1FD
:1024B4006040064B4FEA4111C9B2ABBF00F5614021
:1024C40000F00F0080F800131954704714ED00E079
:1024D4000B4A08B50B4B22F07F029A60BFF34F8F73
:1024E400BFF36F8FD3F8882022F47002C3F88820DA
:1024F40002F0A6FD03F0EAFA00F046F802F0E0FD6F
:102504000000000000ED00E042F8203C009B0B4975
:1025140042F81C3C019B21F0010142F8183C029B4B
:1025240042F8081C42F8143C4FF0807342F8043C13
:102534000023203A02654367704700BF916600009C
:1025440000B50B4B0E4698601546436E83F30B881B
:102554002C4686F309884FF00000064B9847204626
:102564004FF000014FF000024FF00003024C2047EF
:102574009015002089690000916600001022014B2B
:102584001A61704700ED00E0002320210348C218BF
:102594000133412B82F80013F9D1704700E100E0C8
:1025A40008B5EFF30583064A103B02EBC30152F86A
:1025B400330049688847BDE80840FFF71FBD00BFE6
:1025C400B4850000014B1860704700BF3400002040
:1025D4000122024B0020C3F84025704700900350AD
:1025E40020B1034B800143F001031847704700BF3B
:1025F400D0870000084B70B5C31A0D4607499B10DD
:10260400044659434022064804F016FA2B46014674
:102614002046BDE870401847E0140020B76DDBB6D3
:1026240064850000402373B50B4C0093041B0B46D8
:102634000D460A49A41061430646094A094804F0B4
:1026440026FA011E05DA30462B4602B0BDE870407A
:10265400184702B070BD00BFE0140020B76DDBB6B0
:10266400FB6A00006485000010B5EFF31184202399
:1026740083F31288BFF36F8F074A136823F00201B4
:10268400DB07116002D4012005F041FD84F31188B9
:10269400BFF36F8F10BD00BF3015002070B500224E
:1026A400012104460520FFF7FDFE0F4801F0D4FF89
:1026B4000E4B984215D101F0DFFF26690C493046D4
:1026C40004F03DF800280BDB012535642469084932
:1026D40004F11C0004F033F8002801DB0020E56459
:1026E40070BD6FF00400FBE7F12700000000AD0BA4
:1026F400088900001FB500220123CDE902236B469F
:10270400084ACDF800D0CDF804D004F0EDF9002843
:1027140005DB4FF480420023684602F053FE05B007
:102724005DF804FB196B00000C22104B014602FB00
:102734000033002030B4D3E90E529863EFF31180D4
:10274400202484F31288BFF36F8F1C6C04F0C00440
:1027540044F002041C6480F31188BFF36F8F1DB131
:102764002B4630BC0248184730BC7047E0140020A8
:102774006485000010B4EFF31182202383F31288E0
:10278400BFF36F8F1748016841F002040460C80763
:1027940007D482F31188BFF36F8F012010BC01F0BE
:1027A4007FBF4FF05021D1F80C04D1F80C14C907A5
:1027B400EFD5EFF3118083F31288BFF36F8F0A49CB
:1027C4000B6C03F0C00343F002030B6480F3118825
:1027D400BFF36F8F82F31188BFF36F8F002010BC9B
:1027E400FFF7A2BF30150020E014002010B101282B
:1027F40004D07047034B1B6C5B0701D1FFF794BFF8
:10280400704700BFE01400202DE9F0410122074683
:102814003649D1E8EF3FC1E8E02F0028F9D133B9B8
:10282400334934484B60CB608A6003F09BFF7B1EC6
:10283400012B2BD8012F07D14FF05023D3F81C3490
:1028440003F00303022B21D005F073FD0546F8B90C
:10285400294B1B78E3B14FF0502302220646C3F8FC
:1028640008234FF05024DFF89480D4F81824D4F8C7
:102874001834D20315D503F00303022B01D0012F22
:102884000FD16DB386F31188BFF36F8FBDE8F0816C
:10289400EFF31186202383F31288BFF36F8F012592
:1028A400DFE7C5B1304604F081F8D4F81835DBB25F
:1028B400012BDAD1D4F80421002AD6D00022C4F89E
:1028C4000421D4F804210222C4F818252022C8F8CF
:1028D4008021A360C9E70021212003F04DF8E4E73B
:1028E4004FF050230222C3F80423CFE7DC14002066
:1028F400CC140020FC1400209A30002000E100E0F9
:1029040008B5074805F06FFC38B10648FFF75AFED2
:102914000448FEF7DDFE002008BD6FF01200FBE75F
:102924008C8500002D2900000A2838B50446074D7F
:1029340004D1AB680D2128465B689847AB6803480F
:102944005B68E1B29847204638BD00BF8C85000023
:10295400024B0B6001231360704700BF3415002045
:10296400004870475C89000010B5012206481146F2
:1029740005F0D3FC05F02FFC044C206005F028FC86
:102984006060002010BD00BF3C15002034150020FD
:1029940070B50C46154605F01BFC29460646204634
:1029A40004F0BBF808B3B4FBF6F306FB1343E3B936
:1029B400B5FBF6F306FB1353BBB9AE4201D90020B5
:1029C40070BD4FF0FF324FF0FF33094802F0FAFCBC
:1029D40005F0FEFB0646204602F074FAAD1B3444B3
:1029E400F9D1034802F0CAFCE9E76FF01500E7E704
:1029F4003C150020F8B50E461946304617461C46CD
:102A040004F08BF808B344EA060515F003051CD15D
:102A1400A4B14FF0FF324FF0FF330D4802F0D2FC67
:102A240024F00304A54206EB050009D1094AD2F8B3
:102A34000034DB07FBD5064802F0A0FC0020F8BDFB
:102A4400795902F05DFA0435ECE76FF01500F6E70A
:102A54003C1500200090035038B545682B69B3B18C
:102A64001035284602F00AF9044680B90146284682
:102A740002F0D2F8084B98420BD122462846074967
:102A840002F0B2F8224605210D20FFF70BFD0020CD
:102A940038BD6FF00400FBE70000AD0BA52A000071
:102AA400430970B507D10B4B596821B101250C6856
:102AB400094E854001B970BD8A682A4002D030466B
:102AC4004B6898471CB1236821461C46F2E723460D
:102AD400FAE700BF4C150020788500002DE9F0438B
:102AE40040F206354668D00648BF0320337B02EA2D
:102AF400050558BFC2F3401087B001F01F07B5F5B4
:102B0400837F144647EA43178DF8030042D00FD859
:102B1400062D18D007D8B5B1022D3DD06FF01500A1
:102B240007B0BDE8F083B5F5807FF7D101250AE051
:102B340040F20222954231D0B5F5407F30D0B5F550
:102B4400007FEBD102250123220303FA01F129D5E9
:102B540073689960326952BB07F01F037F0973D110
:102B64003B4A84F4803102EB8302D2F80032C1F391
:102B74000041C4F3404423F4E16344EA410423F0F4
:102B840007031C4344EA800444EA0524C2F80042D3
:102B94000020C5E70725D6E70425D4E70525D2E7B5
:102BA4000325D0E7630344BF7368D960D2E71036C6
:102BB400394630460DF1020202F01CF814F4403F8D
:102BC40080460CD13946304605F0FBFA214B984536
:102BD400DED130469DF8021002F05AF8D8E74FF0E3
:102BE400000901AB3946304603AACDE90439CDE9E1
:102BF4000199CDF80C9001F0D1FE164B98428DD17D
:102C040014F4003315D09DF8033084F48034C4F3F5
:102C140000448DF80E3039464B46304603AA8DF8F1
:102C24000C508DF80D4001F067FF0A4B9842CDD04F
:102C340074E7CDE9043339460DF10303304603AAA2
:102C4400039301F0ABFEF0E7803352F82330FFDE4C
:102C5400002584500000AD0BF0B5406801F01F045E
:102C6400057B87B044EA45140569002D5FD0B2F5B1
:102C7400001F00F1100506D12146284605F0A3FAED
:102C8400002007B0F0BD0027B2F5800F01AE019718
:102C9400776037D1B3F1007F14BF052304238DF887
:102CA40004300023CDE904630393836823FA01F11C
:102CB40011F0010118D1B2F1A07F15D104F01F0366
:102CC400620903F1800338D11D4A52F82330DB072F
:102CD4000AD40DF1030632462146284601F08AFF44
:102CE400184B984219D002962146284603AA01F0AF
:102CF40055FE154B98421DD101222146284601F06C
:102D0400D3FFBDE7B3F1C06F05D0B3F1007F14BFAB
:102D140001230223C3E70323C1E73146284601F018
:102D2400BDFF094B9842DED06FF00B00A9E76FF0AE
:102D34008500A6E76FF01500A3E751F82330FFDE06
:102D4400002584500400AD0B0000AD0B2DE9F047C5
:102D540040F2FF16594FDFF868C1DFF868E100EB75
:102D64008101814202D10020BDE8F087046814F497
:102D7400804FC4F3C325C4F3080340F08C80240EB1
:102D8400B34208BF4FF0FF337D5D192C00F28680FB
:102D9400DFE804F00D13191C1F251C848484843679
:102DA4006084848484848484848463787B7EC2F88D
:102DB4000C355C1C5BD10430D3E7C2F814355C1CC1
:102DC400F9D000245CE0C2F80835F2E7C2F8103507
:102DD400F5E75C1CC2F80835EDD0002404E05C1C67
:102DE400C2F80C35E7D001245FEA531859D14FF0EB
:102DF4000109DFF8CC8009FA03FAC8F80CA008E04E
:102E0400C2F80835002DDAD15C1CD4D00024062584
:102E1400A146D0F800A00AF40048B8F1000F1CBF86
:102E24004FF00009012403F01F085B093FD10CEBAC
:102E34008808D8F80032CAF3412A03EA0E0343EAA9
:102E44008A0343EA052343EA090343EA4403C8F82F
:102E54000032B0E7C2F80C35D4E7C2F86035B3F1FC
:102E6400FF3F0468A7D0C4F30044002CBBD05C0926
:102E74001AD10124DFF8488004FA03F9C8F808904D
:102E8400A146C6E7C2F86435E9E7C2F86835E6E763
:102E9400C2F86C35E3E76FF0150065E76FF0850065
:102EA40062E70023DB60FFDE00239B60FBE7002377
:102EB40008F1800853F82830F5E700BF9892000025
:102EC40000258450F0F8FCFF2DE9F04104460D463E
:102ED400476805F02EFA4FF0200888B9264B1B7876
:102EE40073B16426606803F018FFF0B9012005F09F
:102EF400ACF8013EF6D10021212002F03DFDF0E7BF
:102F0400EFF31186314688F31288BFF36F8F606840
:102F140003F003FFA8B986F31188BFF36F8FEFE7BF
:102F240086F31188BFF36F8FE5E7EFF3118631461F
:102F340088F31288BFF36F8F606803F0EEFE0028F9
:102F4400EED0BB6900201D706368BA691B68C3F8C2
:102F540044250122C3F84825C3F82001D3F82041B1
:102F6400C3F85801D3F858019A6081F31188BFF36C
:102F74006F8FBDE8F08100BF9A300020F7B5054699
:102F8400002201210820FFF78DFA0820FFF75AFAE2
:102F94006A6813691168C1F82435137D507D927DE8
:102FA40003431343C1F86C356E68D6E9004313F04C
:102FB400010348D02F6907F1080001F047FB304BAB
:102FC40098425AD1387A04F10C0204F5907105F054
:102FD4003EF8387A012707FA00F001F031FB0823A4
:102FE400C4F80035B369C4F844350023C4F848353F
:102FF400A760D4F85831002BFBD00021C4F8001589
:103004006B6801AADC68204603F05AFE002805DB41
:10301400019B226819791868FFF798FE08216A68ED
:103024001368C3F80015117A51B9D269C3F834256D
:103034000122C3F83825C3F81011D3F810111A600F
:10304400002003B0F0BD0822C4F80025B269C4F81A
:103054004425C4F848350123A360D4F82031002B5B
:10306400FBD00023C4F82031D4F820310123E360DD
:103074004FF48073C4F80433BBE76FF00400E0E757
:103084000000AD0B0123834070B5DC430B4AD2E84A
:10309400EF1F01EA0405C2E8E65F002EF7D14FF402
:1030A400803282400648C0F80823BFF35F8FBFF325
:1030B4006F8F0B4214BF0120002070BD68150020E3
:1030C4000050015070B40E4922F07F46D1E900341B
:1030D400D01AC31844F10004C1E90034A6F5001362
:1030E400B3F5400F09D2074B1B681A0A1B069C193B
:1030F400054B42F10005C3E9004570BC02F0C0BDB8
:10310400980100206C150020A0010020D9B10123F2
:103114000D4A8340D2E8EFCF4CEA030CC2E8E1CF7A
:103124000029F7D14FF48033084A8340C2F80433AE
:10313400074BD3E8AF3FC340DB0742BF4FF4001255
:10314400044BC3F80021704768150020005001505B
:103154006415002000E100E00D4B1868010A000628
:10316400BFF35F8F0B4BD3F80435181841F10001FE
:10317400B3F5801F0AD2084BD3E90023904271EBC8
:10318400030303D210F1807041F10001704700BFC6
:103194006C15002000500150A00100202DE9F04FD3
:1031A40085B016461F4604469DF840A0FFF76AFF07
:1031B4000190FFF7D1FFB04271EB070352D23B4BB2
:1031C400301A67EB0101984271F100014DD2384B7E
:1031D40003EB0413D3E902239F4208BF964258D05D
:1031E4004FF48038334908FA04F8204626F07F4B20
:1031F400C1F8488303F0C2FD4FF00309584604F1B7
:103204005005AD00ADB205F1502504F5A87305F5E0
:1032140080350293029A20F07F4341F82230C1F8AE
:103224004483D1F80435244AC01A033820F07F407F
:1032340090422ED9286868B1D1F80435A3EB0B006D
:1032440020F07F40B0F5000F039322D9204603F00D
:1032540095FD039BBAF1000F07D109EB030009F1B7
:103264000109D7E7BAF1000F09D06FF01505204620
:103274000199FFF74BFF284605B0BDE8F08F012305
:103284000E4AA340D2E8EF0F1843C2E8E10F002929
:10329400F8D107490E982301C8500F9B01EB041283
:1032A4000025C2E902675360E1E700BF0100800026
:1032B4008801002000500150FDFF7F0064150020AC
:1032C4007FB500254FF0FF304FF0FF31194C1A4BFA
:1032D4000226C4F80833C4F84833184BC4F8085518
:1032E400C3E902014FF480334FF40012C4F80433ED
:1032F400134B0121C4F804631520C3F880212A4626
:10330400FFF7D0F81520FFF79DF801230D4AA360BD
:10331400236013600C4B0D4A009328460023CDE92B
:103324000155FFF73BFF3046FFF76EFA284604B01D
:1033340070BD00BF0050015003000F008801002041
:1033440000E100E068150020C9300000FFFF7F00A5
:103354002DE9F7432E4BD3F8042390070BD5D3F86C
:10336400042142B10022C3F804212A4AD3F80431CB
:10337400136801331360264AD2F80433D90326D5DF
:10338400254BD3E8EF1F21F00100C3E8E40F002C24
:10339400F7D1CB0702D4D2F84031C3B100251C4C7D
:1033A400C4F84051D4F84031FFF7D6FEEFF3118250
:1033B400202383F31288BFF36F8F184BD3E902677E
:1033C400B042B94106D282F31188BFF36F8F03B0C4
:1033D400BDE8F0834FF0FF38D3E900104FF0FF3918
:1033E4001D60C3E902894FF48033C4F84833C4F83C
:1033F4004051D4F8403182F31188BFF36F8F002914
:10340400E5D0009032463B4628468847DFE700BFB8
:10341400005001506C150020641500208801002024
:1034240030B5431C124C85B005D08442A8BF044675
:10343400012CB8BF0124FFF78FFE0E4B0C4DD3E9CE
:103444000013401AB0F5000F0FD22218AA4228BF69
:103454002A46002052180849CDE90100009143F1A1
:103464000003FFF79BFE05B030BD2A46F1E700BF1D
:10347400FFFF7F0098010020C930000008B5FFF766
:103484006BFE024B1B68C01A08BD00BF98010020E8
:10349400012310B5074C15206360FEF7E1FF4FF4DC
:1034A4000012054BC4F80833C4F84833034BC3F87F
:1034B400802110BD0050015003000F0000E100E026
:1034C40040EA0103C3F30E0330B58BB940F215157E
:1034D400094CC90BC0F3C730994201D1002030BD5B
:1034E400C218D2B202F5C07244F822500133F3E795
:1034F4006FF01500F3E700BF0030005030B581686D
:1035040085B0103921F00704054603F0F8F91022BC
:103514000146684603F07BFA10226846064903F028
:103524006BFA10236A462146284603F0B4F90038A2
:1035340018BF012005B030BDB68B000030B50D4674
:10354400816887B0102302AA1039044603F08EF96B
:10355400002802DA012007B030BD1022204602A95B
:1035640003F037FC00283AD110221E4902A803F0C8
:1035740033FA00280CBF012302232B70204603F0EA
:1035840014FC012301460DF10702204603F06EF9F5
:103594000028DFDB9DF80730204603F00F021B09EB
:1035A4006A702B7101220DF1070103F012FC10B9AE
:1035B4006B78042B03D901236B7000232B71A26851
:1035C4002046183A22F00702083AA91C03F014FC1A
:1035D4000028BFD12046E91C03F067FCBBE70323A6
:1035E400CBE700BFB68B0000F0B5354F85B0460081
:1035F4000546694657F8260003F05DFC044610B101
:10360400FF2005B0F0BD013657F8260002A903F0EB
:1036140052FC012837D12A4649212A4803F018F9D7
:10362400294B8DF80C40029300229DF800609DF810
:103634000870264C3146207803F0BDFB50B3394660
:10364400607803F0B8FB28B3A378042B03D09DF86B
:10365400031099421ED1E378042B03D09DF80B107C
:10366400994217D12379042B10D16279022A1DD1F2
:10367400174B18482A46492103F0EAF86079831E5B
:10368400022BBED9BCE70028CED0B9E79DF80210C2
:103694009942EAD00132032A04F10604CAD10E4841
:1036A4002A46492103F0D4F80120AAE7032A05D0C9
:1036B4000A4B0B49042A08BF0B46DAE7094BD8E743
:1036C400F0890000CD92000003010303629300001F
:1036D400AF920000189300003C930000B4920000E5
:1036E400C6920000AA920000044B1B68584043088D
:1036F4005B4240421843C017704700BF701500205A
:103704008842F0B504D00025084F0438AA4200D1FD
:10371400F0BD3E6850F8044F5E4024EA060451F8B8
:10372400256001351E4034430460EFE77015002026
:103734002DE9F04F8DB01D46189B8346B3F12A3F07
:103744008A46179F1A9E059240F08D803946169836
:1037540003F039FC012838BF0120470900F01F0499
:103764004FF001097B01502B34BF4B4603230A93CE
:1037740009FA03F30B930A9B059805FA03F306EB86
:103784008303069303EB8503079303F0F4FD4FEAE9
:103794008508424600210890304603F038F9079B1B
:1037A400C6F800900393089B3146CDE90153059B6D
:1037B4003046199A009306EB08092B4603F0ECFDFA
:1037C40051464246484603F017F9022349460993F5
:1037D4000B9B099A934248D142463146584603F01E
:1037E4000BF94FF00009CA46079B5A460393089BFE
:1037F4005946CDE90153059B584600932B4603F0E7
:10380400CBFD002C47D11F24013F169B0AF1010A6E
:1038140053F82730E34003F0010343EA49090A9BC4
:10382400534503D0002CDFD1002FDDD1189BB3F119
:103834002A3F32D1424609FB0861069803F0DCF8BE
:10384400079B59460393089B5846CDE90153059BB2
:10385400069A00932B4603F09FFD002CC1D1BFB9FB
:103864000DB0BDE8F08F00247AE7079B01EB080A4E
:103874000393089B4A46CDE90153059B50460093A8
:103884002B4603F089FD099B5146013309939FE7B9
:10389400A146A246A8E7013CB7E731464FF0000A2B
:1038A4000A4B2A4618681B68584080EA090080EAD7
:1038B4000A00FFF719FFC3430698FFF721FF099B8E
:1038C4000AF1010A53454144EAD1B9E770150020D1
:1038D400054B01311B680132434022EA03020840D0
:1038E4000243501E00B27047701500202DE9F04FBE
:1038F400834699B00F46184600211646039303F0F9
:10390400BCFF002800F0898100240125774B304654
:103914001493039915ABCDE90B45CDE90D45CDE9DC
:103924000F45CDE91145139303F030FFA04228DA87
:10393400BBF1000F05D1E7B90024204619B0BDE85A
:10394400F08F2146584603F0A9FE04460028F2D021
:103954000BA803F0F0FD0DA803F0EDFD0FA803F094
:10396400EAFD11A803F0E7FD0C2115A800F038FBCF
:10397400E3E73146384603F05CFE04460028E7D10D
:10398400DAE731460BA803F054FE04460028DFD1E1
:1039940003990DA803F04DFE04460028D8D1F18800
:1039A4000FA80231ADF83850ADF8305003F0D1FD16
:1039B40004460028CCD101460FA803F06FFE04464C
:1039C4000028C5D1F18811A8023103F0C2FD0446D4
:1039D4000028BDD10DA803F08DFE00F01F001F28A4
:1039E40073D0C0F11F0319460BA8019303F0A8FE7E
:1039F40004460028ACD101990DA803F0A1FE0446A9
:103A04000028A5D1BDF83250BDF83A800DA8A5EB29
:103A1400080A4FEA4A19494603F092FE0446002870
:103A240096D14FEA8A0A0DA90BA803F0DEFE0028FE
:103A34004DDA49460DA803F0A0FE0446002887D1BC
:103A440008F1FF3305939B0005F1FF3A069305F156
:103A5400804508F18043023B013D9B00A5EB08052E
:103A64000893AB000293059B9A4541D8BBF1000F24
:103A74000DD058460FA903F0DCFD002840F0C980A2
:103A8400039AB388928813FB02F3ABF80430002F37
:103A94003FF45EAF01990BA803F06FFE002840F0DD
:103AA400B880B3880BA93846ADF8303003F0C1FDB7
:103AB4000146002840F0AF80384603F0DEFE0028BF
:103AC4007FF446AF0123BB8042E701949AE70F9A43
:103AD4000BA952F80A300846013342F80A300DAAFD
:103AE40003F0B0FF044600289DD031E70100030035
:103AF4000D9B069A04931344DDF82C900793049BC2
:103B04004FEA8A089A5859F82A10A8F104030F9D1D
:103B14000993029B91421D4476D2A8F1040000232C
:103B240059F80000FCF70CFB002914BF4FF0FF33D9
:103B34000346BAF1010F2B600EBF002309EB080303
:103B440053F8083C1593A8F1040359F8033016936D
:103B540059F80830DDF8108017932B6801332B6077
:103B6400089B98442B680021013B2B6011A803F0AB
:103B740095FD00284DD1059B002B48D0D8F8002096
:103B8400119B11A91A60079A084612685A602A689C
:103B940003F05CFF00283CD113A911A803F025FE13
:103BA4000028DFDC2A680DA911A803F04FFF80BBB1
:103BB400029B11A84FEAC308414603F0C1FD40BB74
:103BC4000BA9084611AA03F03DFF014618BB0BA838
:103BD40003F053FE002812DA0DA911A803F029FD01
:103BE400B8B9414611A803F0ABFD90B90BA908463A
:103BF40011AA03F024FF60B92B68013B2B60029BE0
:103C04000AF1FF3A043B2DE74FF0FF3391E7059AA1
:103C1400B6E704469CE60C469AE66FF00B048CE685
:103C24002DE9F74F90461F4A064615680F46454052
:103C3400ED43002B14BF9A468A4600240C9B04F1E2
:103C440004094B4505D20C9B9C4220D303B0BDE82C
:103C5400F08F042208EB04010DEB020002F0CCFE0D
:103C6400019A0AEB040106EA020B04220DEB02009E
:103C740002F0C2FE019A38192A4042EA0B0201926C
:103C840004220DEB020102F0B7FE4C46D6E718F809
:103C940004301AF8042033402A4013433B550134BE
:103CA400D1E700BF70150020082804D00928034874
:103CB40018BF002070470248704700BF749300008B
:103CC4007793000001680E4A0346914215D1C169F9
:103CD400A2F11022A2F1EF1291420ED18268012AC0
:103CE4000BD8C26812B101698A4206D0586928B15A
:103CF4009B691B1A5842584170470120704700BF06
:103D040055AA00FF70B50D4B9E68A6B13046FFF76B
:103D1400D9FF044678B9F3686BB935690DB9204603
:103D240070BD2846FFF7CEFF28B9EB68B34202D135
:103D34002E462D69F2E70124F1E700BF7415002037
:103D44002DE9F8433F4F3C68D4B1BC68C4B10028A6
:103D54004AD0002948D001FB00F5B5FBF0F08842B9
:103D640042D1281D40D8A9070DD025F003060436FA
:103D7400FC6803E06368B34238D2A469002CF9D12B
:103D84002046BDE8F8832E46F2E7FB6041E006F1E9
:103D940020016318203A5A600022C3E902242A4809
:103DA40022691A6160502949D96102B1D3606269FC
:103DB4005A61A1699961AAB193619A6902B1536187
:103DC4004FF0010923610023C4E90169C4E9053303
:103DD4003B69DB072ED5FFF795FF58B31C4B4846CC
:103DE4001B6826E0FB60E8E70024C9E7A3681BB171
:103DF400174B01201B689847626804F12008921B46
:103E0400232AC4D80123A360D4E90523002ABCD003
:103E14009361A3690BB162695A610023C4E9053354
:103E24003B69DA0706D5FFF76DFF18B10120084B8F
:103E34001B6898472A4600214046444602F0E7FDA5
:103E44009EE700BF7415002055AA00FF669911EE85
:103E54003C00002070B50546002800F08880444EE0
:103E64003368002B00F08380B268002A7FD083423D
:103E740003D872681344984203D33E4B01201B6855
:103E84009847A5F120042046FFF71CFF18B1394BD1
:103E940001201B68984755F8183C012B03D0354B7B
:103EA40001201B689847002345F8183C55F8143C3A
:103EB4003BB39A682ABB55F81C2C02F120015A68BE
:103EC4000A445A6055E905321A6155F8145C2B69A5
:103ED40003B1DD6020220021204602F098FD28690C
:103EE40010B18368002B2ED033699B073FD5FFF7B1
:103EF40009FF00283BD0BDE870401E4B01201B6821
:103F0400184755F8100C00282AD0836843BB426830
:103F1400636813442033636003692361D4E9052390
:103F24009AB9CBB9436963618269A261B3B19C61F7
:103F3400A36903B15C61236903B1DC602022002121
:103F440002F065FDD0E72C46E1E79361A369002BFD
:103F5400E8D062695A61E5E7F360F7E7F460E7E700
:103F6400F36845F8083C03B15C61F460BCE770BDDC
:103F7400741500203C00002038B50C4614220021A2
:103F84000546134802F043FD1249134800F040F877
:103F9400232C1CD915F003031FBF043CE418C3F100
:103FA4000403ED1822460021284602F030FD084B98
:103FB4000A49C3E90054203C9D606C609A68116012
:103FC4009A68A1F11021A1F1EF11D161DA6038BD35
:103FD40074150020593E0000453D000055AA00FF1D
:103FE40010B50A46044619B1024B00211B689847D4
:103FF40010BD00BF38000020014B1B68184700BFEC
:1040040044000020014B1B68184700BF40000020FB
:10401400024B1860024B00201960704744000020D6
:1040240040000020F8B500F1080647680446304611
:104034000D4603F063FB87424BD16368B3F5807F81
:1040440047D80021304603F018FC002841DD002148
:10405400304603F03FFBE0B345B9294604F11000B4
:1040640003F00BFC002834DD0020F8BD04F120052A
:104074000021284603F001FC00282ADD00212846FF
:1040840003F028FB28B304F128050021284603F097
:10409400F4FB00281DDD0021284603F01BFBC0B102
:1040A400002104F1100003F0E8FB002811DD0021D9
:1040B40004F1300003F0E1FB00280ADD002104F1E3
:1040C400380003F0DAFB002803DD002104F140008E
:1040D400C6E70148C9E700BF80BFFFFF012938B523
:1040E4000546144601D0074838BD22B901230020F3
:1040F400C5E91C34F8E71046FFF7D6FD0028F5D1D2
:10410400F1E700BF00BFFFFF70B500210446FFF7D1
:1041140089FF054610B10E4D284670BD04F108060E
:10412400304603F0E7FA7F28F5D9103429462046B3
:1041340003F0D0FA0028EED0204603F0DBFA012881
:10414400E9D93146204603F050FB0028E4DBE2E7DE
:1041540000BEFFFFF0B50C4685B0002105461646AB
:10416400FFF760FF002839D102A803F0DFF92146E8
:104174006A6802A803F0C8FA044618B102A803F05A
:10418400DAF90CE005F10804214602A803F02DFB3E
:10419400002807DB02A803F0CEF96FF00304A4F5AE
:1041A400854418E005F1480302A96F6808460093A6
:1041B40005F11002234603F099FD04460028DDD1E1
:1041C4003A46314602A803F0B5FA044602A803F0C1
:1041D400B2F9002CE3D1204605B0F0BD004CFAE75B
:1041E40080BFFFFF012903462DE9F04143D8234A4C
:1041F400002918BF9046224A224F18BF964602F162
:10420400794202F5740202F5016218BF94461E4A0F
:104214001E4818BF17461E4A1E4E18BF164602F106
:10422400D14208BF804602F5C0121B4802F51E6247
:1042340008BF8646194D1A4818BF1546194A08BFC3
:104244008446194C194818BF1446A2F11162A2F50C
:104254000C22A2F28E2218BF02460020C3E9128E5D
:10426400C3E91000C3E914C7C3E91665C3E91842DA
:104274009966BDE8F0816FF07300FAE7D89E05C136
:1042840007D57C363AF54FA539590EF767E6096A22
:10429400310BC0FF7F520E5185AE67BB8C68059B06
:1042A40072F36E3CA78FF964ABD9831FA44FFABE97
:1042B4002DE9F04FCFB000F1640300F144070DF590
:1042C4008A7900934A463B46019153F8041F42F809
:1042D400041F00999942F8D104AD4FF000082C4610
:1042E400DFF8F8A0B8F10F0F61D8019B042203EBAB
:1042F400880103A802F080FB039803F097FDA860EF
:10430400D4F818C1D4E947634FEAFC227340D4F8C7
:10431400206182EABC1203EA0C0382EA7C627340E5
:104324001344D4F824215AF8041B1344D4F810611C
:104334000B440344D4E9421E4FEA713041EA0E02B1
:1043440080EAB100324001EA0E0B80EAB15042EA41
:104354000B020244D4F81401626018441344D4F8E4
:10436400202108F10108C4F82421D4F81C21B8F153
:10437400400FC4E947C2C4E944E6C4E942312360BA
:10438400C4F8180105F10405ACD157F8043F59F8F5
:10439400042F13443B60009BBB42F6D104A84FF4A6
:1043A4009471FFF71DFE00204FB0BDE8F08F2B681D
:1043B40055F8382C4FEAF34080EA734080EA9320A2
:1043C40055F8143C55F8341C134418444FEAB143CF
:1043D40083EAF11383EAD103184490E7F8890000D3
:1043E40008B5EFF31083012B0C4A07D1126ABFF30F
:1043F4004F8F511C4A424A41104608BD03F003FE48
:1044040000B172B6126ABFF34F8F531C5A425A411D
:1044140003F0F9FD0028EFD062B6EDE70080FF005D
:1044240008B5EFF31083012B0B4A06D1D269BFF311
:104434004F8F02F00102104608BD03F0E4FD00B105
:1044440072B6D269BFF34F8F02F0010203F0DBFDB5
:104454000028F0D062B6EEE70080FF0010B503F04C
:10446400D2FD30B14FF050230022C3F81421C3F819
:10447400182103F0D7FD28B101224D4BC3F8382A87
:10448400C3F878254FF47F02D2F83031D2F83421C2
:10449400BFF34F8FC3F30B03092B05D1012A1EBFB2
:1044A4000122434BC3F8782503F0BCFD18B10E225A
:1044B400404BC3F8E42E03F0A6FD30B100223C4B80
:1044C400C3F80C270122C3F810270022D30003F5F8
:1044D4007F03D3F80013BFF34F8F013108D0D3F813
:1044E40000130132D3F80433B2F5807F0B60EDD1B1
:1044F400EFF31084FFF794FF00284DD0BFF34F8FE4
:104504002D4BD3F80024012AFBD1C3F80425D3F89A
:104514000024012AFBD1012C03D003F074FD00B167
:1045240072B6FFF77DFF58B1244AD36923F0010323
:10453400D361BFF34F8F204AD2F80034012BFBD153
:10454400FFF74EFF68B11D4A136A23F0FF0343F0DF
:1045540020031362BFF34F8F174AD2F80034012BA4
:10456400FBD1012C03D003F04EFD00B162B6002252
:10457400114BC3F80425D3F80024012AFBD1BFF35F
:104584004F8F0F490F4BCA6802F4E0621343CB60AC
:10459400BFF34F8F00BFFDE7FFF722FF0028ADD127
:1045A400074AD2F88C3043F44063C2F88C3010BD13
:1045B4000040005000A00350009003500080FF0012
:1045C40000ED00E00400FA0530B50468ACB1B4FABB
:1045D40084F30122C3F11F03DBB29A4024EA0202EE
:1045E400D0E8EF5FA54204D1C0E8EC2FBCF1000F86
:1045F400F6D1EAD102480B7030BD0248FCE700BF97
:104604000000AD0B0200AD0B10B50368CB40DB0717
:1046140010D401238B40026843EA0201D0E8EF4F33
:10462400944204D1C0E8EC1FBCF1000FF6D1F2D1E2
:10463400014810BD0148FCE70000AD0B0400AD0BC0
:10464400014BC3F80405704700700150014601484E
:1046540000F0B0B848000020044B1A7922B90122B6
:1046640018601A7102487047024870478815002084
:104674000000AD0B0C00AD0B08B5084B1B6833B143
:104684000520FDF701FF10B90520FDF7DBFE4FF013
:1046940050230122C3F8182508BD00BF8815002047
:1046A40010B510B1012847D010BD4FF05023D3F8F6
:1046B4001814D3F81824C90322D502F00303022BDB
:1046C40005D0012B02D0002003F0C8FC01234FF0D9
:1046D40050220220C2F8183508224FF482730021B8
:1046E40003F1502319601C68012402F15022146064
:1046F400164A126822B34FF05023C3F80403D3E7D9
:10470400D3F81424D207E1D5D3F81C2402F0030211
:10471400013A012AD7D80D4A12681AB10222C3F805
:104724000423C1E7D3F80421002AFBD00022C3F8F4
:104734000421D3F80431B7E700224FF48073CEE7A5
:104744001A68002AFCD019601B68ADE788150020A0
:104754004FF0502310B5D3F8002152B10020C3F814
:104764000001D3F800210122C3F80823104B1B6871
:1047740098474FF05023D3F8042182B10022C3F8A4
:104784000421D3F80421D3F81824D3F818240221DF
:1047940002F00302012A03D1C3F818159A6010BD70
:1047A400C3F80813024B0120BDE810401B681847EA
:1047B400881500200079024B03EB0010FFF704BFBB
:1047C40050000020036803F01F025B0902600248E6
:1047D40018BF0020704700BF0025845070B50D4CF1
:1047E40000F1080334F813300546DA050E4607D500
:1047F400C3F3432304EBC302526854F8333098479D
:10480400A3682BB131462846E268BDE870401847DA
:1048140070BD00BF60000020024611F0010004D00A
:1048240003490B6A13600B6203B90020704700BF91
:104834000025845010B4124AC0B2083032F8103047
:10484400D9051BD5C3F3432123F4F85322F81030C0
:10485400002002F10E0434F8023F13F4807F03D0E9
:10486400C3F34323994209D001302028F3D1002314
:1048740042F83130034810BCFFF7C6BE10BC704785
:1048840060000020B8000020F0B505460020012695
:10489400044607468C420BD1114BD3F87C2132B12C
:1048A4000022C3F87C21D3F87C3140F00040F0BDF5
:1048B400E3B29B0003F580729B0806FA03F31D42E2
:1048C4000BD002F1A04202F55042D2F800C0BCF174
:1048D400000F02D01760126818430134DAE700BFF2
:1048E40000D00050CBB2024608460D49083331F8D7
:1048F4001330990611D599070FD4012110685B0B69
:104904009940C0F80813126802EB8303D3F810250A
:1049140022F00302C3F810257047002103F042BCC3
:1049240060000020F7B5194ECDB2083536F81530C1
:104934000746DB070C4626D5FFF7D4FF36F81530BB
:104944009A0608D55A0B3B6803EB82030022C3F88E
:104954001025C3F810252046FFF76CFF002301A89B
:1049640026F815300194FFF72DFF019B00EB83001F
:10497400D0F80022064B134043F00203C0F8003283
:10498400044803B0F0BD0448FBE700BF600000200A
:10499400F0F8FCFF0000AD0B0400AD0B2DE9FF4166
:1049A400136807460C461646FBB1DFF83C81CDB2CE
:1049B400083538F8152002F02202222A22D00022DB
:1049C4002046CDE900228DF80E208DF80F200DF140
:1049D4000E010DF10F0203F09CFB38F8153023F0A3
:1049E400020343F0010328F8153073684BB31A78B7
:1049F4005868DFF8F4C0E3B208333CF813108D07AD
:104A040002D5B0B139481FE021F02001C904C90C16
:104A14002CF8131068B1032AF4D870683D68406814
:104A240090F800E005EB8E058AB9C5F81025C5F8A5
:104A340010253CF8131021F01C0141EA82022CF8E5
:104A44001320B3682BBB2A4804B0BDE8F081D5F825
:104A5400108541EA4E3128F00308C5F810853D68F9
:104A640041F0200105EB8E05D5F810052CF8131044
:104A740020F4473020F44070C5F810052002D5F822
:104A8400107500F4F85040EA02403843C5F81005A8
:104A9400CFE72046D3E90067FFF7CCFE002ED2D043
:104AA400114DD5E90023964203D19F4201D1002242
:104AB40009E010480DF10F01FFF786FD0C4B9842F9
:104AC400C2D19DF80F20E4B205EBC20308345F6045
:104AD40035F8143045F8326043EA422343F48073D6
:104AE40025F81430AFE700BF600000200400AD0BD0
:104AF4000000AD0BB80000202DE9FF4107460C462D
:104B04001E4612B3DFF8D480CDB2083538F815301C
:104B1400980701D4990621D413F01C0F02D05378BE
:104B2400012B1BD001238DF80F3000232046CDE943
:104B340000230DF10F01931C013203F0EAFA38F857
:104B4400153043F0030328F81530002E44D0234DCC
:104B5400E1B2083135F81120930703D4204804B09A
:104B6400BDE8F081002096F800E03B6822F02002C6
:104B7400D20403EB8E03D20CC3F8100525F81120E0
:104B8400C3F8100596F801C04FEA8E08BCF1000F77
:104B940022D03868B6784044D0F810354FEA0C4C2F
:104BA40023F4981323F4F853C0F81035230203F4C4
:104BB400F8530CF4403C3605D0F8107543EA0C0366
:104BC40006F48016334342EA4E323B4342F020025D
:104BD400C0F8103525F811200248C0E76000002015
:104BE4000400AD0B0000AD0B014BC3E9021270478A
:104BF40060000020054BC9B2083133F81130990622
:104C040043BF5B0B024813700248704760000020EA
:104C14000000AD0B0400AD0B70B5154D064695F8BC
:104C240060401CBB2146402205F1100001F0EFFE5C
:104C3400214630682E6D8E420ED10023C0F87C319F
:104C4400D0F87C3140F30730FDF7FCFB0123094821
:104C540085F86030AB6570BDCBB29B0003F5807204
:104C64007C2B04BF845083580131E4E70248F2E707
:104C7400600000200000AD0B0C00AD0B034B93F85B
:104C84006000003818BF0120704700BF600000209A
:104C94000148FFF7B9BC00BFB40000200148FFF78A
:104CA40093BC00BFB400002073B503680C46D3F86E
:104CB40004130029A4BF4FF00041C3F804131E4994
:104CC400E3B2083331F8133099061AD513F002060B
:104CD40017D15B0B05689C0004F580716E50695810
:104CE40001682144D1F8104544F00104C1F810458D
:104CF4002AB10122016802FA03F3C1F8043302B0B5
:104D040070BDC3F38203042B11D0052B11D001A86D
:104D14000194FFF757FD019A0369D34003F001039F
:104D2400991C204602B0BDE8704003F03BBA032151
:104D3400F7E70221F5E700BF600000202DE9F34703
:104D4400534B544FD3F80403396DC0B240F00040C4
:104D5400FFF79AFD051E18DA00236846F96D0093E3
:104D64004FF00108FFF758FD97F85C30DA0757D485
:104D7400396D4FF00040FFF787FD6846F96DFFF786
:104D84004BFD0028F0D125F000450124002D66D10B
:104D940002B0BDE8F08794FAA4F4B4FA84F4E0080D
:104DA40004F1080337F8139004F007021DF80030EB
:104DB40008FA02F223EA02030DF8003001A8019474
:104DC400FFF700FD019B4FEA9901803350F82360FF
:104DD400C9F3820A4B07D146C6F3014624D52046BF
:104DE4005146FFF7FBFC01A80194FFF7EBFC019B84
:104DF400F6B2803350F82330C3F301439E4207D107
:104E04000021204603F0CEF93146204603F0CAF9CA
:104E140001A80194FFF7D6FC019B08FA03F303628F
:104E2400009C002CB7D1A3E7022E0CD1032120460D
:104E340003F0B8F90AF00503012BE9D149462046ED
:104E4400FFF7CCFCE4E70221204603F0ABF9BAF10A
:104E5400030FF3D0032EDBD1BAF1020FEDE795FA7D
:104E6400A5F3B3FA83F304FA03F29B0003F1A0431E
:104E740003F55043D3F81005D3F81015C0F30420FC
:104E8400C1F3014125EA0205FFF7A8FC7EE700BF54
:104E940000D00050600000200022034BC3F884259A
:104EA400C3F80425704700BF00900350044AD2F8A9
:104EB4000834DB07FBD50160BFF35F8F704700BF89
:104EC4000090035008B5C0F30B0383B90222094BC9
:104ED400C3F88425C3F804254FF0FF320260D3F8E9
:104EE4000024D207FBD5FFF7D7FF034808BD0348CA
:104EF400FCE700BF009003500000AD0B0A00AD0BAF
:104F0400012208B5054BC3F88425C3F80425FFF72F
:104F1400CDFFBDE80840FFF7BFBF00BF00900350BE
:104F240038B5EFF31185202383F31288BFF36F8F15
:104F3400064B9C6803F06AF985F31188BFF36F8F01
:104F44002046BDE83840FDF705BA00BF90150020A3
:104F540038B5094B53F82040013053F82050A5428E
:104F640000D838BD636823B1204603F052F90834F1
:104F7400F5E723689847FAE7F88A0000012270B53C
:104F84002A4B032086B01A70FFF7E2FFFCF73CFFC0
:104F940003F05BF90420FFF7DBFF254C254D264683
:104FA400AE4204F1300410D300F028FC204C224E11
:104FB400AC4226D300F036FCFBF72AFA1F4A137BD7
:104FC40023F00103137306B070BD54F80C3C059331
:104FD40054F8103C049354F8143C039354F8183CCC
:104FE400029354F81C3C019354F8203C009354E978
:104FF4000A2354E90C0100F00BFA54F8303C5E65C6
:10500400CDE7D4E90A23B3F1FF3F08BFB2F1FF3F74
:1050140005D052EA0301206803D103F090F930343B
:10502400C6E73146183000F0B1FDF8E79A300020A9
:10503400BC870000BC8700004F84000028020020C9
:1050440008B50348034A0021121A03F0FAF808BD10
:10505400880100209C3000200023012270B586B016
:10506400CDE904230F220193CDE9023214234FF436
:10507400A0720E4D0E4E03FB00550E4906EBC016F2
:10508400044602FB00110C4B3046009500F0C0F9B9
:10509400737B2C7423F004037373084B013403EB08
:1050A400C423EE606B6006B070BD00BF9015002095
:1050B400A8010020A0380020EB820000A0300020CE
:1050C400BFB50020FFF744FF2A4B03F5006282F3CB
:1050D400088883F30A880024E023274D274E85F8A7
:1050E4002230EC772C766C76AC7685F820406B6AAF
:1050F400234F43F4E0236B6285F82340FDF7BEF8A9
:10510400FDF73CFA4FF0FF3340F20112AB62EB6261
:105114001C4B1D4D9A81B360C3E919441C6703F00D
:1051240061F80120FFF714FF0220FFF711FF00F0E0
:1051340099FB164B75610593012315494FF42052D1
:10514400CDE9034328463B46CDE90144009400F0F1
:105154005FF906466A7B284622F004026A7303F06C
:105164002AF92046FFF778FF3A4631462846FDF7EC
:10517400E7F900BFA030002000ED00E0901500200A
:10518400814F0000A8020020280200207A9300002A
:10519400E0390020002038B5054C064DAC4200D360
:1051A40038BD204603F052F80028F9DB1C34F5E73B
:1051B400340100203401002073B50C46EFF3118153
:1051C400202585F31288BFF36F8FC5685DB1256014
:1051D4002B68C360836901338361002081F31188E4
:1051E400BFF36F8F11E052EA030603D16FF00B0097
:1051F4002560F3E7CDE900230246083000F04AFABF
:1052040018B9034B9B685B69236002B070BD00BF93
:10521400901500202DE9F341044617461E46EFF38E
:105224001188202383F31288BFF36F8FC368334A36
:105234007BB180689168884219D057EA060318D177
:1052440088F31188BFF36F8F6FF00F0002B0BDE8D1
:10525400F081916891F90E100133E3609368216144
:10526400A36088F31188BFF36F8F0020EEE72169F4
:10527400F2E791F90E1090F90E306FF07E02994228
:10528400A8BF19469142B8BF11468B422DDD03F0E9
:1052940035F8054622464146CDE90076184800F027
:1052A400F9F90028E1D0EFF31186202383F3128863
:1052B400BFF36F8FA068D0B1236821699C420AD0E4
:1052C4004BB193F90E309942A8BF19466FF07E0393
:1052D4009942B8BF194603F011F840B13146084865
:1052E40000F048FA6FF00A00B0E70025D2E7002D7D
:1052F400F4D186F31188BFF36F8FF3E79015002084
:105304009B30002038B58368044663B3194A926819
:1053140093422BD1C368012B03D9013BC360002006
:1053240038BDEFF31185202383F31288BFF36F8F09
:105334000169806802F0E2FF204603F08AF8A06069
:1053440058B190F90E2022610022826703F033F8ED
:105354002946094800F00EFAE1E7E06085F3118878
:10536400BFF36F8FDBE76FF01500D9E74FF0FF3025
:10537400D6E700BF901500209B30002038B50446C6
:10538400EFF31185202383F31288BFF36F8F03F0AB
:1053940060F848B10022826703F00DF82946BDE8A1
:1053A4003840074800F0E6B9D4E902329A4218BFFF
:1053B4000133A36085F31188BFF36F8F38BD00BF3D
:1053C4009B30002013B5EFF31181202484F312885D
:1053D400BFF36F8F846844B1013C846081F311880A
:1053E400BFF36F8F002002B010BD52EA030406D150
:1053F40081F31188BFF36F8F6FF00F00F3E7CDE9EE
:1054040000230246014800F045F9ECE79B300020F8
:105414002DE9FF410E9E00F1580506730426C0E9EC
:1054240016550025044646730D9EC0E9065586733D
:10543400D61D0C9A26F00706C0E919168560C573B7
:10544400C56602920B9A01EB060801920A9A009231
:105454004246FDF759F8054B65659B6803B11B6F20
:105464004046236704B0BDE8F08100BF90150020DA
:1054740038B50D4D2B4653F8184F9C4200D004B953
:10548400EC68AB6838B95A7BD20604D1A26912B968
:10549400DA897F2A05D89C4202D0204600F0BEFA61
:1054A40023466B6138BD00BF9015002008B590F904
:1054B4000D200146002A437B04DA03F07F03437383
:1054C40002F03FFF044B9868431A58425841BDE824
:1054D4000840FFF7CDBF00BF9015002070B490F9CD
:1054E4000D30427B002B29DBD30627D183692BBBEC
:1054F400134962F07F0242730A4652F8184F9442ED
:1055040018BF2346CC6923B9C0E900242060C861D0
:105514000CE090F90E5093F90E60B5420AD0AE42F9
:1055240008DD5A68C0E9003210605860002070BC81
:10553400FFF79EBF9C42E7D01B68E4E770BC70474E
:1055440090150020002A2DE9F0410E460CBF1021D1
:105554000821427B044611420FD141EA0203D209D9
:1055640018D1437308291BD00120FFF781FFBFF333
:105574005F8F637B23F060036373274B9B68A342B5
:1055840043D1EFF30583002B3FD13046BDE8F04112
:10559400FCF7F6BE03F07F03437302F0D2FEE1E7AB
:1055A400A36813B1204602F0D4FE04F1180002F0FF
:1055B4008DFFA56D04F15807AF4211D04FF00008DC
:1055C40075B1284602F0C5FE05F1180002F07EFF11
:1055D4002846C5F87880FFF781FFA56DAF42EFD16B
:1055E4000D4DAB689C42BFD1EFF30583002BBBD0BC
:1055F4000120FFF73DFF40F20112084B9A8100227F
:10560400AB60C3E919221A67B1E786F31188BFF3C7
:105614006F8FBDE8F08100BF90150020A802002024
:1056240070B590F90D200146002A437B04DA03F09B
:105634007F03437302F085FE154A4B7B104663F0EB
:105644007F034B7350F8183FD469834208BF00238B
:1056540023B9C1E900042160D1610CE091F90E5035
:1056640093F90E60B5420ED0AE420CDD5868C1E924
:105674000030016059609068BDE87040431A584298
:105684005841FFF7F5BE9C42E3D01B68E0E700BF3A
:1056940090150020F8B5124B0C46DDE9067611464C
:1056A4009868104A1060EFF31182202282F3128866
:1056B400BFF36F8F9D68284602F055FEB6F1FF3F99
:1056C40008BFB7F1FF3F06D03A463346064905F115
:1056D400180000F05BFA2046BDE8F840FCF750BE25
:1056E40090150020B01500204F840000F8B5044642
:1056F400EFF31186202383F31288BFF36F8F437B6C
:1057040049B2DA0619D18569BDB903F07F03437341
:1057140002F017FE437B164A63F07F03437313467C
:10572400817353F8180F984218BF0546D0695DB9C4
:10573400C4E900300460D46111E00020A17386F351
:105744001188BFF36F8FF8BD95F90E70B9420BD075
:105754008F4209DD6B68C4E900531C606C60012052
:10576400FFF786FE0120EAE7A842E1D02D68DEE7D4
:105774009015002049B9EFF3058030B9054B5A69FB
:105784009B689A4201D0FCF7FBBD81F31188BFF3FB
:105794006F8F70479015002010B5EFF3118420220D
:1057A40082F31288BFF36F8F427B510704D484F3D2
:1057B4001188BFF36F8F10BD22F004024273FFF70C
:1057C4008DFE2146BDE810400148FFF7D3BF00BF5E
:1057D4009B300020034648B9EFF3058232B9064AEC
:1057E40051699268914201D0FCF7CABD83F31188D4
:1057F400BFF36F8F704700BF90150020EFF3118146
:10580400202383F31288BFF36F8F054B9A68D37BF1
:10581400013BD37381F31188BFF36F8F704700BFCF
:105824009015002038B5EFF31185202484F31288F5
:10583400BFF36F8F0A4B00209A68D37B0133D37375
:10584400FFF716FE85F31188BFF36F8FEFF3118016
:1058540084F31288BFF36F8FBDE83840FFF7BABFF7
:1058640090150020024B03F11802C3E90622704789
:1058740090150020F8B5EFF31185202383F31288E7
:10588400BFF36F8F19498868437B03F07F03437329
:1058940002F057FD08468B685A7B62F07F025A7308
:1058A40050F8182FCC69824208BF002222B9C3E9FC
:1058B40000042360CB610CE093F90E6092F90E7042
:1058C400BE420ED0B7420CDD5168C3E900210B6023
:1058D40053600120FFF7CCFD2846BDE8F840FCF7F3
:1058E4004FBDA242E3D01268E0E700BF901500204C
:1058F40050EA01032DE9F04105460E4603D1FFF7B6
:10590400B9FF00202BE0831C71F1FF3329DB02F087
:10591400F2FD2C18EFF31188202383F31288BFF3D0
:105924006F8F124F124BB8681860FFF7BFFDB8684D
:1059340010492A463346183000F028F9BA68404620
:10594400537B43F010035373FCF71AFD02F0D3FDAD
:10595400201A63EB0303012873F10003D1DBBDE8D4
:10596400F0816FF00104241AD4E700BF90150020E1
:10597400B01500204F840000B1F1FF3F08BFB0F123
:10598400FF3F08B506D10A4B986802F023FD4FF09B
:10599400FF3008BDFFF7ACFF4FF47A7147F6FF7391
:1059A4000022C0FB0132D80B40EA4240F1E700BFBD
:1059B40090150020014B9868704700BF9015002097
:1059C4000122044BC01A044BC0105843034B1A5411
:1059D400704700BF28030020ABAAAAAA9B3000206E
:1059E400C3897F2B12D80A4B1B6863B1094B90F90A
:1059F4000E201B689A4209DB437BDB0606D1064B6B
:105A0400C31A18BF012303F0010070470023FAE70B
:105A1400B8150020B4150020A801002070B50E4B65
:105A24000E4C1E7C054606EB460304EBC3042046DD
:105A340002F04CFD00220A4B28469A55FFF7D0FF8E
:105A440048B1084B2046BDE870401A680649013A3F
:105A5400D31700F09BB870BD9015002028030020D8
:105A64009B300020B8150020C559000038B5EFF36D
:105A74001185202383F31288BFF36F8F104B114AD3
:105A84009C681068A04206D1FFF7C8FF85F311880F
:105A9400BFF36F8F38BD00211B7C11600A4AD35CB1
:105AA400002BF3D02046FFF79BFF0028EED0637B4A
:105AB400DB0602D12046FFF7B3FD2046E4E700BF32
:105AC40090150020B01500209B30002008B5064832
:105AD400064A0749121A02F0B6FBBDE80840054A17
